{
  "contractName": "CryptoBlades",
  "abi": [
    {
      "anonymous": false,
      "inputs": [
        {
          "indexed": true,
          "internalType": "address",
          "name": "owner",
          "type": "address"
        },
        {
          "indexed": true,
          "internalType": "uint256",
          "name": "character",
          "type": "uint256"
        },
        {
          "indexed": false,
          "internalType": "uint256",
          "name": "weapon",
          "type": "uint256"
        },
        {
          "indexed": false,
          "internalType": "uint32",
          "name": "target",
          "type": "uint32"
        },
        {
          "indexed": false,
          "internalType": "uint24",
          "name": "playerRoll",
          "type": "uint24"
        },
        {
          "indexed": false,
          "internalType": "uint24",
          "name": "enemyRoll",
          "type": "uint24"
        },
        {
          "indexed": false,
          "internalType": "uint16",
          "name": "xpGain",
          "type": "uint16"
        },
        {
          "indexed": false,
          "internalType": "uint256",
          "name": "skillGain",
          "type": "uint256"
        }
      ],
      "name": "FightOutcome",
      "type": "event"
    },
    {
      "anonymous": false,
      "inputs": [
        {
          "indexed": true,
          "internalType": "address",
          "name": "to",
          "type": "address"
        },
        {
          "indexed": false,
          "internalType": "uint256",
          "name": "skillAmount",
          "type": "uint256"
        }
      ],
      "name": "InGameOnlyFundsGiven",
      "type": "event"
    },
    {
      "anonymous": false,
      "inputs": [
        {
          "indexed": true,
          "internalType": "bytes32",
          "name": "role",
          "type": "bytes32"
        },
        {
          "indexed": true,
          "internalType": "bytes32",
          "name": "previousAdminRole",
          "type": "bytes32"
        },
        {
          "indexed": true,
          "internalType": "bytes32",
          "name": "newAdminRole",
          "type": "bytes32"
        }
      ],
      "name": "RoleAdminChanged",
      "type": "event"
    },
    {
      "anonymous": false,
      "inputs": [
        {
          "indexed": true,
          "internalType": "bytes32",
          "name": "role",
          "type": "bytes32"
        },
        {
          "indexed": true,
          "internalType": "address",
          "name": "account",
          "type": "address"
        },
        {
          "indexed": true,
          "internalType": "address",
          "name": "sender",
          "type": "address"
        }
      ],
      "name": "RoleGranted",
      "type": "event"
    },
    {
      "anonymous": false,
      "inputs": [
        {
          "indexed": true,
          "internalType": "bytes32",
          "name": "role",
          "type": "bytes32"
        },
        {
          "indexed": true,
          "internalType": "address",
          "name": "account",
          "type": "address"
        },
        {
          "indexed": true,
          "internalType": "address",
          "name": "sender",
          "type": "address"
        }
      ],
      "name": "RoleRevoked",
      "type": "event"
    },
    {
      "inputs": [],
      "name": "DEFAULT_ADMIN_ROLE",
      "outputs": [
        {
          "internalType": "bytes32",
          "name": "",
          "type": "bytes32"
        }
      ],
      "stateMutability": "view",
      "type": "function"
    },
    {
      "inputs": [],
      "name": "GAME_ADMIN",
      "outputs": [
        {
          "internalType": "bytes32",
          "name": "",
          "type": "bytes32"
        }
      ],
      "stateMutability": "view",
      "type": "function"
    },
    {
      "inputs": [],
      "name": "REWARDS_CLAIM_TAX_DURATION",
      "outputs": [
        {
          "internalType": "uint256",
          "name": "",
          "type": "uint256"
        }
      ],
      "stateMutability": "view",
      "type": "function"
    },
    {
      "inputs": [],
      "name": "REWARDS_CLAIM_TAX_MAX",
      "outputs": [
        {
          "internalType": "int128",
          "name": "",
          "type": "int128"
        }
      ],
      "stateMutability": "view",
      "type": "function"
    },
    {
      "inputs": [],
      "name": "burnWeaponFee",
      "outputs": [
        {
          "internalType": "int128",
          "name": "",
          "type": "int128"
        }
      ],
      "stateMutability": "view",
      "type": "function"
    },
    {
      "inputs": [],
      "name": "characters",
      "outputs": [
        {
          "internalType": "contract Characters",
          "name": "",
          "type": "address"
        }
      ],
      "stateMutability": "view",
      "type": "function"
    },
    {
      "inputs": [],
      "name": "fightRewardBaseline",
      "outputs": [
        {
          "internalType": "int128",
          "name": "",
          "type": "int128"
        }
      ],
      "stateMutability": "view",
      "type": "function"
    },
    {
      "inputs": [],
      "name": "fightRewardGasOffset",
      "outputs": [
        {
          "internalType": "int128",
          "name": "",
          "type": "int128"
        }
      ],
      "stateMutability": "view",
      "type": "function"
    },
    {
      "inputs": [],
      "name": "fightTraitBonus",
      "outputs": [
        {
          "internalType": "int128",
          "name": "",
          "type": "int128"
        }
      ],
      "stateMutability": "view",
      "type": "function"
    },
    {
      "inputs": [],
      "name": "fightXpGain",
      "outputs": [
        {
          "internalType": "uint256",
          "name": "",
          "type": "uint256"
        }
      ],
      "stateMutability": "view",
      "type": "function"
    },
    {
      "inputs": [
        {
          "internalType": "bytes32",
          "name": "role",
          "type": "bytes32"
        }
      ],
      "name": "getRoleAdmin",
      "outputs": [
        {
          "internalType": "bytes32",
          "name": "",
          "type": "bytes32"
        }
      ],
      "stateMutability": "view",
      "type": "function"
    },
    {
      "inputs": [
        {
          "internalType": "bytes32",
          "name": "role",
          "type": "bytes32"
        },
        {
          "internalType": "uint256",
          "name": "index",
          "type": "uint256"
        }
      ],
      "name": "getRoleMember",
      "outputs": [
        {
          "internalType": "address",
          "name": "",
          "type": "address"
        }
      ],
      "stateMutability": "view",
      "type": "function"
    },
    {
      "inputs": [
        {
          "internalType": "bytes32",
          "name": "role",
          "type": "bytes32"
        }
      ],
      "name": "getRoleMemberCount",
      "outputs": [
        {
          "internalType": "uint256",
          "name": "",
          "type": "uint256"
        }
      ],
      "stateMutability": "view",
      "type": "function"
    },
    {
      "inputs": [
        {
          "internalType": "bytes32",
          "name": "role",
          "type": "bytes32"
        },
        {
          "internalType": "address",
          "name": "account",
          "type": "address"
        }
      ],
      "name": "grantRole",
      "outputs": [],
      "stateMutability": "nonpayable",
      "type": "function"
    },
    {
      "inputs": [
        {
          "internalType": "bytes32",
          "name": "role",
          "type": "bytes32"
        },
        {
          "internalType": "address",
          "name": "account",
          "type": "address"
        }
      ],
      "name": "hasRole",
      "outputs": [
        {
          "internalType": "bool",
          "name": "",
          "type": "bool"
        }
      ],
      "stateMutability": "view",
      "type": "function"
    },
    {
      "inputs": [
        {
          "internalType": "address",
          "name": "",
          "type": "address"
        }
      ],
      "name": "inGameOnlyFunds",
      "outputs": [
        {
          "internalType": "uint256",
          "name": "",
          "type": "uint256"
        }
      ],
      "stateMutability": "view",
      "type": "function"
    },
    {
      "inputs": [],
      "name": "mintCharacterFee",
      "outputs": [
        {
          "internalType": "int128",
          "name": "",
          "type": "int128"
        }
      ],
      "stateMutability": "view",
      "type": "function"
    },
    {
      "inputs": [],
      "name": "mintWeaponFee",
      "outputs": [
        {
          "internalType": "int128",
          "name": "",
          "type": "int128"
        }
      ],
      "stateMutability": "view",
      "type": "function"
    },
    {
      "inputs": [],
      "name": "oneFrac",
      "outputs": [
        {
          "internalType": "int128",
          "name": "",
          "type": "int128"
        }
      ],
      "stateMutability": "view",
      "type": "function"
    },
    {
      "inputs": [],
      "name": "priceOracleSkillPerUsd",
      "outputs": [
        {
          "internalType": "contract IPriceOracle",
          "name": "",
          "type": "address"
        }
      ],
      "stateMutability": "view",
      "type": "function"
    },
    {
      "inputs": [],
      "name": "promos",
      "outputs": [
        {
          "internalType": "contract Promos",
          "name": "",
          "type": "address"
        }
      ],
      "stateMutability": "view",
      "type": "function"
    },
    {
      "inputs": [],
      "name": "randoms",
      "outputs": [
        {
          "internalType": "contract IRandoms",
          "name": "",
          "type": "address"
        }
      ],
      "stateMutability": "view",
      "type": "function"
    },
    {
      "inputs": [],
      "name": "refillStaminaFee",
      "outputs": [
        {
          "internalType": "int128",
          "name": "",
          "type": "int128"
        }
      ],
      "stateMutability": "view",
      "type": "function"
    },
    {
      "inputs": [],
      "name": "reforgeWeaponFee",
      "outputs": [
        {
          "internalType": "int128",
          "name": "",
          "type": "int128"
        }
      ],
      "stateMutability": "view",
      "type": "function"
    },
    {
      "inputs": [],
      "name": "reforgeWeaponWithDustFee",
      "outputs": [
        {
          "internalType": "int128",
          "name": "",
          "type": "int128"
        }
      ],
      "stateMutability": "view",
      "type": "function"
    },
    {
      "inputs": [
        {
          "internalType": "bytes32",
          "name": "role",
          "type": "bytes32"
        },
        {
          "internalType": "address",
          "name": "account",
          "type": "address"
        }
      ],
      "name": "renounceRole",
      "outputs": [],
      "stateMutability": "nonpayable",
      "type": "function"
    },
    {
      "inputs": [
        {
          "internalType": "bytes32",
          "name": "role",
          "type": "bytes32"
        },
        {
          "internalType": "address",
          "name": "account",
          "type": "address"
        }
      ],
      "name": "revokeRole",
      "outputs": [],
      "stateMutability": "nonpayable",
      "type": "function"
    },
    {
      "inputs": [],
      "name": "skillToken",
      "outputs": [
        {
          "internalType": "contract IERC20",
          "name": "",
          "type": "address"
        }
      ],
      "stateMutability": "view",
      "type": "function"
    },
    {
      "inputs": [],
      "name": "stakeFromGameImpl",
      "outputs": [
        {
          "internalType": "contract IStakeFromGame",
          "name": "",
          "type": "address"
        }
      ],
      "stateMutability": "view",
      "type": "function"
    },
    {
      "inputs": [],
      "name": "totalInGameOnlyFunds",
      "outputs": [
        {
          "internalType": "uint256",
          "name": "",
          "type": "uint256"
        }
      ],
      "stateMutability": "view",
      "type": "function"
    },
    {
      "inputs": [],
      "name": "weapons",
      "outputs": [
        {
          "internalType": "contract Weapons",
          "name": "",
          "type": "address"
        }
      ],
      "stateMutability": "view",
      "type": "function"
    },
    {
      "inputs": [
        {
          "internalType": "contract IERC20",
          "name": "_skillToken",
          "type": "address"
        },
        {
          "internalType": "contract Characters",
          "name": "_characters",
          "type": "address"
        },
        {
          "internalType": "contract Weapons",
          "name": "_weapons",
          "type": "address"
        },
        {
          "internalType": "contract IPriceOracle",
          "name": "_priceOracleSkillPerUsd",
          "type": "address"
        },
        {
          "internalType": "contract IRandoms",
          "name": "_randoms",
          "type": "address"
        }
      ],
      "name": "initialize",
      "outputs": [],
      "stateMutability": "nonpayable",
      "type": "function"
    },
    {
      "inputs": [
        {
          "internalType": "contract Promos",
          "name": "_promos",
          "type": "address"
        }
      ],
      "name": "migrateTo_ef994e2",
      "outputs": [],
      "stateMutability": "nonpayable",
      "type": "function"
    },
    {
      "inputs": [
        {
          "internalType": "contract IStakeFromGame",
          "name": "_stakeFromGame",
          "type": "address"
        }
      ],
      "name": "migrateTo_23b3a8b",
      "outputs": [],
      "stateMutability": "nonpayable",
      "type": "function"
    },
    {
      "inputs": [],
      "name": "migrateTo_801f279",
      "outputs": [],
      "stateMutability": "nonpayable",
      "type": "function"
    },
    {
      "inputs": [
        {
          "internalType": "uint256",
          "name": "amount",
          "type": "uint256"
        }
      ],
      "name": "recoverSkill",
      "outputs": [],
      "stateMutability": "nonpayable",
      "type": "function"
    },
    {
      "inputs": [
        {
          "internalType": "uint256",
          "name": "_inGameOnlyFunds",
          "type": "uint256"
        },
        {
          "internalType": "uint256",
          "name": "_tokenRewards",
          "type": "uint256"
        },
        {
          "internalType": "uint256",
          "name": "_skillNeeded",
          "type": "uint256"
        }
      ],
      "name": "getSkillToSubtract",
      "outputs": [
        {
          "internalType": "uint256",
          "name": "fromInGameOnlyFunds",
          "type": "uint256"
        },
        {
          "internalType": "uint256",
          "name": "fromTokenRewards",
          "type": "uint256"
        },
        {
          "internalType": "uint256",
          "name": "fromUserWallet",
          "type": "uint256"
        }
      ],
      "stateMutability": "pure",
      "type": "function"
    },
    {
      "inputs": [
        {
          "internalType": "address",
          "name": "playerAddress",
          "type": "address"
        },
        {
          "internalType": "uint256",
          "name": "skillNeeded",
          "type": "uint256"
        }
      ],
      "name": "getSkillNeededFromUserWallet",
      "outputs": [
        {
          "internalType": "uint256",
          "name": "skillNeededFromUserWallet",
          "type": "uint256"
        }
      ],
      "stateMutability": "view",
      "type": "function"
    },
    {
      "inputs": [],
      "name": "getMyCharacters",
      "outputs": [
        {
          "internalType": "uint256[]",
          "name": "",
          "type": "uint256[]"
        }
      ],
      "stateMutability": "view",
      "type": "function"
    },
    {
      "inputs": [],
      "name": "getMyWeapons",
      "outputs": [
        {
          "internalType": "uint256[]",
          "name": "",
          "type": "uint256[]"
        }
      ],
      "stateMutability": "view",
      "type": "function"
    },
    {
      "inputs": [
        {
          "internalType": "uint96",
          "name": "playerData",
          "type": "uint96"
        }
      ],
      "name": "unpackFightData",
      "outputs": [
        {
          "internalType": "uint8",
          "name": "charTrait",
          "type": "uint8"
        },
        {
          "internalType": "uint24",
          "name": "basePowerLevel",
          "type": "uint24"
        },
        {
          "internalType": "uint64",
          "name": "timestamp",
          "type": "uint64"
        }
      ],
      "stateMutability": "pure",
      "type": "function"
    },
    {
      "inputs": [
        {
          "internalType": "uint256",
          "name": "char",
          "type": "uint256"
        },
        {
          "internalType": "uint256",
          "name": "wep",
          "type": "uint256"
        },
        {
          "internalType": "uint32",
          "name": "target",
          "type": "uint32"
        },
        {
          "internalType": "uint8",
          "name": "fightMultiplier",
          "type": "uint8"
        }
      ],
      "name": "fight",
      "outputs": [],
      "stateMutability": "nonpayable",
      "type": "function"
    },
    {
      "inputs": [
        {
          "internalType": "uint24",
          "name": "playerBasePower",
          "type": "uint24"
        },
        {
          "internalType": "int128",
          "name": "wepMultiplier",
          "type": "int128"
        },
        {
          "internalType": "uint24",
          "name": "wepBonusPower",
          "type": "uint24"
        },
        {
          "internalType": "uint64",
          "name": "staminaTimestamp",
          "type": "uint64"
        },
        {
          "internalType": "uint256",
          "name": "hour",
          "type": "uint256"
        },
        {
          "internalType": "uint32",
          "name": "target",
          "type": "uint32"
        }
      ],
      "name": "verifyFight",
      "outputs": [],
      "stateMutability": "pure",
      "type": "function"
    },
    {
      "inputs": [
        {
          "internalType": "uint32",
          "name": "target",
          "type": "uint32"
        }
      ],
      "name": "getMonsterPower",
      "outputs": [
        {
          "internalType": "uint24",
          "name": "",
          "type": "uint24"
        }
      ],
      "stateMutability": "pure",
      "type": "function"
    },
    {
      "inputs": [
        {
          "internalType": "uint24",
          "name": "basePower",
          "type": "uint24"
        },
        {
          "internalType": "int128",
          "name": "weaponMultiplier",
          "type": "int128"
        },
        {
          "internalType": "uint24",
          "name": "bonusPower",
          "type": "uint24"
        }
      ],
      "name": "getPlayerPower",
      "outputs": [
        {
          "internalType": "uint24",
          "name": "",
          "type": "uint24"
        }
      ],
      "stateMutability": "pure",
      "type": "function"
    },
    {
      "inputs": [
        {
          "internalType": "uint24",
          "name": "traitsCWE",
          "type": "uint24"
        }
      ],
      "name": "getPlayerTraitBonusAgainst",
      "outputs": [
        {
          "internalType": "int128",
          "name": "",
          "type": "int128"
        }
      ],
      "stateMutability": "view",
      "type": "function"
    },
    {
      "inputs": [
        {
          "internalType": "uint256",
          "name": "char",
          "type": "uint256"
        },
        {
          "internalType": "uint256",
          "name": "wep",
          "type": "uint256"
        }
      ],
      "name": "getTargets",
      "outputs": [
        {
          "internalType": "uint32[4]",
          "name": "",
          "type": "uint32[4]"
        }
      ],
      "stateMutability": "view",
      "type": "function"
    },
    {
      "inputs": [
        {
          "internalType": "uint8",
          "name": "attacker",
          "type": "uint8"
        },
        {
          "internalType": "uint8",
          "name": "defender",
          "type": "uint8"
        }
      ],
      "name": "isTraitEffectiveAgainst",
      "outputs": [
        {
          "internalType": "bool",
          "name": "",
          "type": "bool"
        }
      ],
      "stateMutability": "pure",
      "type": "function"
    },
    {
      "inputs": [],
      "name": "mintCharacter",
      "outputs": [],
      "stateMutability": "nonpayable",
      "type": "function"
    },
    {
      "inputs": [],
      "name": "mintWeapon",
      "outputs": [],
      "stateMutability": "nonpayable",
      "type": "function"
    },
    {
      "inputs": [
        {
          "internalType": "uint256",
          "name": "burnID",
          "type": "uint256"
        }
      ],
      "name": "burnWeapon",
      "outputs": [],
      "stateMutability": "nonpayable",
      "type": "function"
    },
    {
      "inputs": [
        {
          "internalType": "uint256[]",
          "name": "burnIDs",
          "type": "uint256[]"
        }
      ],
      "name": "burnWeapons",
      "outputs": [],
      "stateMutability": "nonpayable",
      "type": "function"
    },
    {
      "inputs": [
        {
          "internalType": "uint256",
          "name": "reforgeID",
          "type": "uint256"
        },
        {
          "internalType": "uint256",
          "name": "burnID",
          "type": "uint256"
        }
      ],
      "name": "reforgeWeapon",
      "outputs": [],
      "stateMutability": "nonpayable",
      "type": "function"
    },
    {
      "inputs": [
        {
          "internalType": "uint256",
          "name": "reforgeID",
          "type": "uint256"
        },
        {
          "internalType": "uint8",
          "name": "amountLB",
          "type": "uint8"
        },
        {
          "internalType": "uint8",
          "name": "amount4B",
          "type": "uint8"
        },
        {
          "internalType": "uint8",
          "name": "amount5B",
          "type": "uint8"
        }
      ],
      "name": "reforgeWeaponWithDust",
      "outputs": [],
      "stateMutability": "nonpayable",
      "type": "function"
    },
    {
      "inputs": [
        {
          "internalType": "contract IRandoms",
          "name": "_newRandoms",
          "type": "address"
        }
      ],
      "name": "migrateRandoms",
      "outputs": [],
      "stateMutability": "nonpayable",
      "type": "function"
    },
    {
      "inputs": [
        {
          "internalType": "address",
          "name": "playerAddress",
          "type": "address"
        },
        {
          "internalType": "int128",
          "name": "usdAmount",
          "type": "int128"
        }
      ],
      "name": "payContract",
      "outputs": [],
      "stateMutability": "nonpayable",
      "type": "function"
    },
    {
      "inputs": [
        {
          "internalType": "address",
          "name": "playerAddress",
          "type": "address"
        },
        {
          "internalType": "uint256",
          "name": "convertedAmount",
          "type": "uint256"
        }
      ],
      "name": "payContractConverted",
      "outputs": [],
      "stateMutability": "nonpayable",
      "type": "function"
    },
    {
      "inputs": [
        {
          "internalType": "address",
          "name": "playerAddress",
          "type": "address"
        },
        {
          "internalType": "int128",
          "name": "baseAmount",
          "type": "int128"
        }
      ],
      "name": "payPlayer",
      "outputs": [],
      "stateMutability": "nonpayable",
      "type": "function"
    },
    {
      "inputs": [
        {
          "internalType": "address",
          "name": "playerAddress",
          "type": "address"
        },
        {
          "internalType": "uint256",
          "name": "convertedAmount",
          "type": "uint256"
        }
      ],
      "name": "payPlayerConverted",
      "outputs": [],
      "stateMutability": "nonpayable",
      "type": "function"
    },
    {
      "inputs": [
        {
          "internalType": "uint256",
          "name": "characterID",
          "type": "uint256"
        },
        {
          "internalType": "address",
          "name": "playerAddress",
          "type": "address"
        }
      ],
      "name": "approveContractCharacterFor",
      "outputs": [],
      "stateMutability": "nonpayable",
      "type": "function"
    },
    {
      "inputs": [
        {
          "internalType": "uint256",
          "name": "weaponID",
          "type": "uint256"
        },
        {
          "internalType": "address",
          "name": "playerAddress",
          "type": "address"
        }
      ],
      "name": "approveContractWeaponFor",
      "outputs": [],
      "stateMutability": "nonpayable",
      "type": "function"
    },
    {
      "inputs": [
        {
          "internalType": "uint256",
          "name": "cents",
          "type": "uint256"
        }
      ],
      "name": "setCharacterMintValue",
      "outputs": [],
      "stateMutability": "nonpayable",
      "type": "function"
    },
    {
      "inputs": [
        {
          "internalType": "uint256",
          "name": "tenthcents",
          "type": "uint256"
        }
      ],
      "name": "setFightRewardBaselineValue",
      "outputs": [],
      "stateMutability": "nonpayable",
      "type": "function"
    },
    {
      "inputs": [
        {
          "internalType": "uint256",
          "name": "cents",
          "type": "uint256"
        }
      ],
      "name": "setFightRewardGasOffsetValue",
      "outputs": [],
      "stateMutability": "nonpayable",
      "type": "function"
    },
    {
      "inputs": [
        {
          "internalType": "uint256",
          "name": "cents",
          "type": "uint256"
        }
      ],
      "name": "setWeaponMintValue",
      "outputs": [],
      "stateMutability": "nonpayable",
      "type": "function"
    },
    {
      "inputs": [
        {
          "internalType": "uint256",
          "name": "cents",
          "type": "uint256"
        }
      ],
      "name": "setBurnWeaponValue",
      "outputs": [],
      "stateMutability": "nonpayable",
      "type": "function"
    },
    {
      "inputs": [
        {
          "internalType": "uint256",
          "name": "cents",
          "type": "uint256"
        }
      ],
      "name": "setReforgeWeaponValue",
      "outputs": [],
      "stateMutability": "nonpayable",
      "type": "function"
    },
    {
      "inputs": [
        {
          "internalType": "uint256",
          "name": "cents",
          "type": "uint256"
        }
      ],
      "name": "setReforgeWeaponWithDustValue",
      "outputs": [],
      "stateMutability": "nonpayable",
      "type": "function"
    },
    {
      "inputs": [
        {
          "internalType": "uint8",
          "name": "points",
          "type": "uint8"
        }
      ],
      "name": "setStaminaCostFight",
      "outputs": [],
      "stateMutability": "nonpayable",
      "type": "function"
    },
    {
      "inputs": [
        {
          "internalType": "uint8",
          "name": "points",
          "type": "uint8"
        }
      ],
      "name": "setDurabilityCostFight",
      "outputs": [],
      "stateMutability": "nonpayable",
      "type": "function"
    },
    {
      "inputs": [
        {
          "internalType": "uint256",
          "name": "average",
          "type": "uint256"
        }
      ],
      "name": "setFightXpGain",
      "outputs": [],
      "stateMutability": "nonpayable",
      "type": "function"
    },
    {
      "inputs": [
        {
          "internalType": "uint256",
          "name": "max",
          "type": "uint256"
        }
      ],
      "name": "setCharacterLimit",
      "outputs": [],
      "stateMutability": "nonpayable",
      "type": "function"
    },
    {
      "inputs": [
        {
          "internalType": "address",
          "name": "to",
          "type": "address"
        },
        {
          "internalType": "uint256",
          "name": "skillAmount",
          "type": "uint256"
        }
      ],
      "name": "giveInGameOnlyFunds",
      "outputs": [],
      "stateMutability": "nonpayable",
      "type": "function"
    },
    {
      "inputs": [
        {
          "internalType": "address",
          "name": "to",
          "type": "address"
        },
        {
          "internalType": "uint256",
          "name": "skillAmount",
          "type": "uint256"
        }
      ],
      "name": "giveInGameOnlyFundsFromContractBalance",
      "outputs": [],
      "stateMutability": "nonpayable",
      "type": "function"
    },
    {
      "inputs": [
        {
          "internalType": "int128",
          "name": "usdAmount",
          "type": "int128"
        }
      ],
      "name": "usdToSkill",
      "outputs": [
        {
          "internalType": "uint256",
          "name": "",
          "type": "uint256"
        }
      ],
      "stateMutability": "view",
      "type": "function"
    },
    {
      "inputs": [],
      "name": "getCurrentHour",
      "outputs": [
        {
          "internalType": "uint256",
          "name": "",
          "type": "uint256"
        }
      ],
      "stateMutability": "view",
      "type": "function"
    },
    {
      "inputs": [],
      "name": "claimTokenRewards",
      "outputs": [],
      "stateMutability": "nonpayable",
      "type": "function"
    },
    {
      "inputs": [],
      "name": "stakeUnclaimedRewards",
      "outputs": [],
      "stateMutability": "nonpayable",
      "type": "function"
    },
    {
      "inputs": [],
      "name": "claimXpRewards",
      "outputs": [],
      "stateMutability": "nonpayable",
      "type": "function"
    },
    {
      "inputs": [],
      "name": "getTokenRewards",
      "outputs": [
        {
          "internalType": "uint256",
          "name": "",
          "type": "uint256"
        }
      ],
      "stateMutability": "view",
      "type": "function"
    },
    {
      "inputs": [
        {
          "internalType": "uint256",
          "name": "char",
          "type": "uint256"
        }
      ],
      "name": "getXpRewards",
      "outputs": [
        {
          "internalType": "uint256",
          "name": "",
          "type": "uint256"
        }
      ],
      "stateMutability": "view",
      "type": "function"
    },
    {
      "inputs": [
        {
          "internalType": "address",
          "name": "wallet",
          "type": "address"
        }
      ],
      "name": "getTokenRewardsFor",
      "outputs": [
        {
          "internalType": "uint256",
          "name": "",
          "type": "uint256"
        }
      ],
      "stateMutability": "view",
      "type": "function"
    },
    {
      "inputs": [
        {
          "internalType": "address",
          "name": "wallet",
          "type": "address"
        }
      ],
      "name": "getTotalSkillOwnedBy",
      "outputs": [
        {
          "internalType": "uint256",
          "name": "",
          "type": "uint256"
        }
      ],
      "stateMutability": "view",
      "type": "function"
    },
    {
      "inputs": [],
      "name": "getOwnRewardsClaimTax",
      "outputs": [
        {
          "internalType": "int128",
          "name": "",
          "type": "int128"
        }
      ],
      "stateMutability": "view",
      "type": "function"
    }
  ],
  "bytecode": "0x608060405234801561001057600080fd5b506154d4806100206000396000f3fe608060405234801561001057600080fd5b50600436106104ac5760003560e01c806391d148541161026d578063ca15c87311610151578063e36ed971116100ce578063ebca521f11610092578063ebca521f14610e43578063f359832814610e6f578063f7cd44af14610e9b578063faf039f414610eb8578063fb198c4a14610ec0578063fd20747e14610f1b576104ac565b8063e36ed97114610dd3578063e3a6615a14610df0578063e4a0f56614610df8578063e6a9076a14610e1e578063e6c6b7f014610e3b576104ac565b8063d2c76c0511610115578063d2c76c0514610d25578063d547741f14610d4d578063dbf802d914610d79578063dc88432b14610d81578063e073241914610da7576104ac565b8063ca15c87314610c32578063d056fe9614610c4f578063d070bb5414610cf2578063d0eac9c114610cfa578063d1ebdfd314610d1d576104ac565b8063aa663777116101ea578063b97ed979116101ae578063b97ed97914610c02578063bc67e88714610c0a578063bcc0957d14610c12578063be2cf13814610c1a578063bee666d814610c22578063c6e195ed14610c2a576104ac565b8063aa66377714610bb3578063ab37e93414610bbb578063b179edf414610bc3578063b63589a114610bf2578063b7e1cd8614610bfa576104ac565b80639f6b232e116102315780639f6b232e14610b1a5780639f8c964c14610b75578063a217fddf14610b7d578063a93bde2f14610b85578063aa22548b14610bab576104ac565b806391d1485414610a58578063945dbfcf14610a98578063979aacf714610ab5578063988b293514610ad25780639b91748114610af8576104ac565b80633f7e1dd5116103945780635b99d35f116103115780636f907206116102d55780636f907206146109865780637998b3fd146109b25780637d3eb7d3146109d85780638ae541cb146109e05780638c30db7914610a185780639010d07c14610a35576104ac565b80635b99d35f146108d4578063613f1352146108fa57806364d67868146109025780636a3c5e951461091f5780636c6302b314610966576104ac565b8063534f660011610358578063534f6600146108015780635504d3d214610857578063563002aa1461085f578063599389b5146108ac57806359995f55146108cc576104ac565b80633f7e1dd5146107a957806344678be1146107b1578063499eeeeb146107ce5780634bfe0fa7146107d657806351e717ac146107f9576104ac565b80631459457a1161042d578063328da351116103f1578063328da351146106f0578063336dfb46146106f8578063359238aa1461075057806336568abe1461076d5780633c4739d3146107995780633f18cd5b146107a1576104ac565b80631459457a1461061f5780631d765c8814610667578063248a9ca31461066f578063253a49931461068c5780632f2ff15d146106c4576104ac565b80630ec32977116104745780630ec329771461056c5780630f92e39e146105745780631208fa55146105a057806313d721ef146105c45780631426cead146105f3576104ac565b806301c5f7ed146104b157806306deb3e1146104df5780630a8a9215146104fc5780630dff3a101461052e5780630e0320611461054f575b600080fd5b6104dd600480360360408110156104c757600080fd5b506001600160a01b038135169060200135610f38565b005b6104dd600480360360208110156104f557600080fd5b5035610f4e565b61051c6004803603602081101561051257600080fd5b5035600f0b610f8e565b60408051918252519081900360200190f35b610536611026565b60408051600f92830b90920b8252519081900360200190f35b6104dd6004803603602081101561056557600080fd5b5035611034565b6104dd61106f565b6104dd6004803603604081101561058a57600080fd5b50803590602001356001600160a01b03166110c0565b6105a86110d2565b604080516001600160a01b039092168252519081900360200190f35b6104dd600480360360408110156105da57600080fd5b506001600160a01b038135169060200135600f0b6110e1565b6104dd6004803603604081101561060957600080fd5b50803590602001356001600160a01b03166110f3565b6104dd600480360360a081101561063557600080fd5b506001600160a01b03813581169160208101358216916040820135811691606081013582169160809091013516611105565b6104dd611392565b61051c6004803603602081101561068557600080fd5b5035611499565b6104dd600480360360808110156106a257600080fd5b5080359060ff60208201358116916040810135821691606090910135166114ae565b6104dd600480360360408110156106da57600080fd5b50803590602001356001600160a01b031661156c565b61051c6115d4565b6107006115e7565b60408051602080825283518183015283519192839290830191858101910280838360005b8381101561073c578181015183820152602001610724565b505050509050019250505060405180910390f35b6104dd6004803603602081101561076657600080fd5b5035611757565b6104dd6004803603604081101561078357600080fd5b50803590602001356001600160a01b0316611792565b6107006117f3565b61051c61195d565b6105a8611964565b6104dd600480360360208110156107c757600080fd5b5035611973565b6105366119c8565b6104dd600480360360408110156107ec57600080fd5b50803590602001356119d8565b6105a8611a7f565b6104dd600480360360c081101561081757600080fd5b50803562ffffff908116916020810135600f0b9160408201351690606081013567ffffffffffffffff169060808101359060a0013563ffffffff16611a8e565b61051c611b3c565b6108946004803603606081101561087557600080fd5b5062ffffff81358116916020810135600f0b9160409091013516611b5e565b6040805162ffffff9092168252519081900360200190f35b6104dd600480360360208110156108c257600080fd5b503560ff16611b9a565b610536611bc2565b61051c600480360360208110156108ea57600080fd5b50356001600160a01b0316611bcb565b61051c611c73565b6104dd6004803603602081101561091857600080fd5b5035611c79565b6109486004803603606081101561093557600080fd5b5080359060208101359060400135611ce1565b60408051938452602084019290925282820152519081900360600190f35b6104dd6004803603602081101561097c57600080fd5b503560ff16611d28565b6104dd6004803603604081101561099c57600080fd5b506001600160a01b038135169060200135611df8565b61051c600480360360208110156109c857600080fd5b50356001600160a01b0316611eb5565b610536611ed0565b6104dd600480360360808110156109f657600080fd5b50803590602081013590604081013563ffffffff16906060013560ff16611ee0565b6104dd60048036036020811015610a2e57600080fd5b503561229e565b6105a860048036036040811015610a4b57600080fd5b50803590602001356122dd565b610a8460048036036040811015610a6e57600080fd5b50803590602001356001600160a01b0316612304565b604080519115158252519081900360200190f35b61051c60048036036020811015610aae57600080fd5b5035612322565b6104dd60048036036020811015610acb57600080fd5b5035612334565b61051c60048036036020811015610ae857600080fd5b50356001600160a01b0316612393565b61053660048036036020811015610b0e57600080fd5b503562ffffff166123a5565b610b4560048036036020811015610b3057600080fd5b50356bffffffffffffffffffffffff16612468565b6040805160ff909416845262ffffff909216602084015267ffffffffffffffff1682820152519081900360600190f35b610536612488565b61051c612491565b6104dd60048036036020811015610b9b57600080fd5b50356001600160a01b0316612496565b610536612500565b610536612510565b61051c612519565b6104dd60048036036040811015610bd957600080fd5b506001600160a01b038135169060200135600f0b61251f565b61051c612531565b6105a8612545565b6104dd612554565b6104dd612624565b6105366127c5565b6105366127ce565b6105a86127d7565b6105366127e6565b61051c60048036036020811015610c4857600080fd5b50356127f6565b6104dd60048036036020811015610c6557600080fd5b810190602081018135640100000000811115610c8057600080fd5b820183602082011115610c9257600080fd5b80359060200191846020830284011164010000000083111715610cb457600080fd5b91908080602002602001604051908101604052809392919081815260200183836020028082843760009201919091525092955061280d945050505050565b6105a86128f0565b61089460048036036020811015610d1057600080fd5b503563ffffffff166128ff565b6105a8612907565b610a8460048036036040811015610d3b57600080fd5b5060ff81358116916020013516612916565b6104dd60048036036040811015610d6357600080fd5b50803590602001356001600160a01b0316612939565b610536612992565b6104dd60048036036020811015610d9757600080fd5b50356001600160a01b031661299e565b61051c60048036036040811015610dbd57600080fd5b506001600160a01b038135169060200135612a08565b6104dd60048036036020811015610de957600080fd5b5035612a40565b610536612ae6565b6104dd60048036036020811015610e0e57600080fd5b50356001600160a01b0316612af6565b6104dd60048036036020811015610e3457600080fd5b5035612b60565b6104dd612cb0565b6104dd60048036036040811015610e5957600080fd5b506001600160a01b038135169060200135612de8565b6104dd60048036036040811015610e8557600080fd5b506001600160a01b038135169060200135612dfa565b6104dd60048036036020811015610eb157600080fd5b5035612e0c565b6104dd612ea0565b610ee360048036036040811015610ed657600080fd5b50803590602001356135bf565b6040518082608080838360005b83811015610f08578181015183820152602001610ef0565b5050505090500191505060405180910390f35b6104dd60048036036020811015610f3157600080fd5b50356137dd565b610f4061381c565b610f4a8282613898565b5050565b610f5661381c565b610f62816103e861397a565b606c60106101000a8154816001600160801b030219169083600f0b6001600160801b0316021790555050565b600061101e606860009054906101000a90046001600160a01b03166001600160a01b0316639d1b464a6040518163ffffffff1660e01b815260040160206040518083038186803b158015610fe157600080fd5b505afa158015610ff5573d6000803e3d6000fd5b505050506040513d602081101561100b57600080fd5b5051600f84900b9063ffffffff6139b116565b90505b919050565b606b546101009004600f0b81565b61103c61381c565b61104781606461397a565b606d8054600f9290920b6001600160801b03166001600160801b031990921691909117905550565b336000818152607260205260408120805490829055916110b4906110a790849061109890613a19565b600f0b9063ffffffff6139b116565b839063ffffffff613ab416565b9050610f4a3382613b11565b6110c861381c565b610f4a8282613b2e565b6079546001600160a01b031681565b6110e961381c565b610f4a8282613b97565b6110fb61381c565b610f4a8282613ba9565b600054610100900460ff168061111e575061111e613bfe565b8061112c575060005460ff16155b6111675760405162461bcd60e51b815260040180806020018281038252602e8152602001806153d6602e913960400191505060405180910390fd5b600054610100900460ff16158015611192576000805460ff1961ff0019909116610100171660011790555b61119a613c0f565b6111a56000336115ca565b604080516923a0a6a2afa0a226a4a760b11b8152905190819003600a0190206111ce90336115ca565b606780546001600160a01b038089166001600160a01b0319928316179092556065805488841690831617905560668054878416908316179055606880548684169083161790556069805492851692909116919091179055606b805460ff1916602817905561123e600a600161397a565b606b60016101000a8154816001600160801b030219169083600f0b6001600160801b031602179055506112736003600161397a565b606d8054600f9290920b6001600160801b03908116600160801b02921691909117905560206071556112a56001613cc0565b60748054600f9290920b6001600160801b03166001600160801b03199092169190911790556112d7604b6103e861397a565b607460106101000a8154816001600160801b030219169083600f0b6001600160801b0316021790555061130f615a89620186a061397a565b606d8054600f9290920b6001600160801b03166001600160801b03199092169190911790556113426101586103e861397a565b606c8054600f9290920b6001600160801b03908116600160801b0292169190911790556079805460ff60a01b1916600160a01b179055801561138a576000805461ff00191690555b505050505050565b336000908152607260209081526040808320805490849055606754607954835163095ea7b360e01b81526001600160a01b039182166004820152602481018490529351929591169363095ea7b3936044808201949293918390030190829087803b1580156113ff57600080fd5b505af1158015611413573d6000803e3d6000fd5b505050506040513d602081101561142957600080fd5b505060795460408051633347009160e11b81523360048201526024810184905290516001600160a01b039092169163668e01229160448082019260009290919082900301818387803b15801561147e57600080fd5b505af1158015611492573d6000803e3d6000fd5b5050505050565b60009081526033602052604090206002015490565b836114b881613cde565b607a54600160801b9004600f0b6114ce81613da7565b607a546114e6903390600160801b9004600f0b613b97565b6066546040805163c394f9db60e01b81526004810189905260ff808916602483015280881660448301528616606482015290516001600160a01b039092169163c394f9db9160848082019260009290919082900301818387803b15801561154c57600080fd5b505af1158015611560573d6000803e3d6000fd5b50505050505050505050565b60008281526033602052604090206002015461158f9061158a613f39565b612304565b6115ca5760405162461bcd60e51b815260040180806020018281038252602f815260200180615351602f913960400191505060405180910390fd5b610f4a8282613f3d565b3360009081526072602052604090205490565b606654604080516370a0823160e01b8152336004820152905160609283926001600160a01b03909116916370a0823191602480820192602092909190829003018186803b15801561163757600080fd5b505afa15801561164b573d6000803e3d6000fd5b505050506040513d602081101561166157600080fd5b505167ffffffffffffffff8111801561167957600080fd5b506040519080825280602002602001820160405280156116a3578160200160208202803683370190505b50905060005b81518110156117515760665460408051632f745c5960e01b81523360048201526024810184905290516001600160a01b0390921691632f745c5991604480820192602092909190829003018186803b15801561170457600080fd5b505afa158015611718573d6000803e3d6000fd5b505050506040513d602081101561172e57600080fd5b5051825183908390811061173e57fe5b60209081029190910101526001016116a9565b50905090565b61175f61381c565b61176a81606461397a565b607a8054600f9290920b6001600160801b03166001600160801b031990921691909117905550565b61179a613f39565b6001600160a01b0316816001600160a01b0316146117e95760405162461bcd60e51b815260040180806020018281038252602f81526020018061544f602f913960400191505060405180910390fd5b610f4a8282613fac565b606554604080516370a0823160e01b8152336004820152905160609283926001600160a01b03909116916370a0823191602480820192602092909190829003018186803b15801561184357600080fd5b505afa158015611857573d6000803e3d6000fd5b505050506040513d602081101561186d57600080fd5b505167ffffffffffffffff8111801561188557600080fd5b506040519080825280602002602001820160405280156118af578160200160208202803683370190505b50905060005b81518110156117515760655460408051632f745c5960e01b81523360048201526024810184905290516001600160a01b0390921691632f745c5991604480820192602092909190829003018186803b15801561191057600080fd5b505afa158015611924573d6000803e3d6000fd5b505050506040513d602081101561193a57600080fd5b5051825183908390811061194a57fe5b60209081029190910101526001016118b5565b6213c68081565b6068546001600160a01b031681565b61197b61381c565b606554604080516344678be160e01b81526004810184905290516001600160a01b03909216916344678be19160248082019260009290919082900301818387803b15801561147e57600080fd5b60006119d333613a19565b905090565b816119e281613cde565b816119ec81613cde565b606e54600f0b6119fb81613da7565b606e54611a0c903390600f0b613b97565b60665460408051639abcafef60e01b8152600481018890526024810187905290516001600160a01b0390921691639abcafef9160448082019260009290919082900301818387803b158015611a6057600080fd5b505af1158015611a74573d6000803e3d6000fd5b505050505050505050565b6077546001600160a01b031681565b611a96615310565b611aab611aa4888888611b5e565b858561401b565b90506000805b6004811015611aee578363ffffffff16838260048110611acd57fe5b602002015163ffffffff161415611ae657506001905060045b600101611ab1565b5080611b32576040805162461bcd60e51b815260206004820152600e60248201526d15185c99d95d081a5b9d985b1a5960921b604482015290519081900360640190fd5b5050505050505050565b604080516923a0a6a2afa0a226a4a760b11b8152905190819003600a01902081565b6000611b908262ffffff16611b848662ffffff1686600f0b6139b190919063ffffffff16565b9063ffffffff6140b516565b90505b9392505050565b611ba261381c565b6079805460ff909216600160a01b0260ff60a01b19909216919091179055565b607a54600f0b81565b606754604080516370a0823160e01b81526001600160a01b038481166004830152915160009392909216916370a0823191602480820192602092909190829003018186803b158015611c1c57600080fd5b505afa158015611c30573d6000803e3d6000fd5b505050506040513d6020811015611c4657600080fd5b5051611c5183611eb5565b6001600160a01b03841660009081526075602052604090205401019050919050565b60715481565b611c84600033612304565b611cc1576040805162461bcd60e51b81526020600482015260096024820152682737ba1030b236b4b760b91b604482015290519081900360640190fd5b606754611cde906001600160a01b0316338363ffffffff61410f16565b50565b6000806000858411611cfb57508291506000905080611d1f565b8584039350848411611d1557508491508290506000611d1f565b5050508190038282825b93509350939050565b611d3061381c565b60148160ff161015611d89576040805162461bcd60e51b815260206004820152601860248201527f5374616d696e61436f7374466967687420746f6f206c6f770000000000000000604482015290519081900360640190fd5b60328160ff161115611de2576040805162461bcd60e51b815260206004820152601960248201527f5374616d696e61436f7374466967687420746f6f206869676800000000000000604482015290519081900360640190fd5b606b805460ff191660ff92909216919091179055565b611e0061381c565b607654611e13908263ffffffff6140b516565b6076556001600160a01b038216600090815260756020526040902054611e3f908263ffffffff6140b516565b6001600160a01b03808416600090815260756020526040902091909155606754611e72911633308463ffffffff61416616565b6040805182815290516001600160a01b038416917f3443ca0a6a2d7fbb0e0c0612adb07cdcbde092e281a3dddc6ed66c14c00429cd919081900360200190a25050565b6001600160a01b031660009081526072602052604090205490565b607454600160801b9004600f0b81565b8383323314611f36576040805162461bcd60e51b815260206004820152601c60248201527f4f6e6c7920454f4120616c6c6f776564202874656d706f726172792900000000604482015290519081900360640190fd5b606554604080516331a9108f60e11b815260048101859052905133926001600160a01b031691636352211e916024808301926020929190829003018186803b158015611f8157600080fd5b505afa158015611f95573d6000803e3d6000fd5b505050506040513d6020811015611fab57600080fd5b50516001600160a01b031614612008576040805162461bcd60e51b815260206004820152601760248201527f4e6f742074686520636861726163746572206f776e6572000000000000000000604482015290519081900360640190fd5b606654604080516331a9108f60e11b815260048101849052905133926001600160a01b031691636352211e916024808301926020929190829003018186803b15801561205357600080fd5b505afa158015612067573d6000803e3d6000fd5b505050506040513d602081101561207d57600080fd5b50516001600160a01b0316146120d1576040805162461bcd60e51b81526020600482015260146024820152732737ba103a3432903bb2b0b837b71037bbb732b960611b604482015290519081900360640190fd5b60008360ff16116120e157600080fd5b606554606b5460408051632ee6accf60e01b8152600481018a905260ff928316870290921660248301525160009283928392612178926001600160a01b031691632ee6accf91604480830192602092919082900301818887803b15801561214757600080fd5b505af115801561215b573d6000803e3d6000fd5b505050506040513d602081101561217157600080fd5b5051612468565b6066546079546040805163226acf0560e11b8152600481018f905260ff8088166024830152600160a01b90930483168d029092166044830152519497509295509093506000928392839283926001600160a01b03909116916344d59e0a91606480830192608092919082900301818787803b1580156121f657600080fd5b505af115801561220a573d6000803e3d6000fd5b505050506040513d608081101561222057600080fd5b508051602082015160408301516060909301519196509450909250905061224a868584888f6141c0565b61228f8d8d61225a898787611b5e565b60088f63ff0000001663ffffffff16901c60088660ff1662ffffff16901b8c60ff161762ffffff16178f62ffffff168f6141d5565b50505050505050505050505050565b6122a661381c565b6122b181606461397a565b606b60016101000a8154816001600160801b030219169083600f0b6001600160801b0316021790555050565b60008281526033602052604081206122fb908363ffffffff6143f516565b90505b92915050565b60008281526033602052604081206122fb908363ffffffff61440116565b60009081526073602052604090205490565b61233c61381c565b61234781606461397a565b607a80546001600160801b03908116600160801b600f94850b831681029190911792839055606e80546001600160801b031916918404850b93850b9390930190930b1691909117905550565b60756020526000908152604090205481565b607454600090600f0b60ff80841690600885901c168114156123e5576074546123e290600f84810b91600160801b9004900b63ffffffff61441616565b91505b6123f88160108662ffffff16901c612916565b156124255760745461241e90600f84810b91600160801b9004900b63ffffffff61441616565b9150612461565b61243860108562ffffff16901c82612916565b156124615760745461245e90600f84810b91600160801b9004900b63ffffffff61444a16565b91505b5092915050565b60ff811691600882901c62ffffff169160201c67ffffffffffffffff1690565b606e54600f0b81565b600081565b6124a1600033612304565b6124de576040805162461bcd60e51b81526020600482015260096024820152682737ba1030b236b4b760b91b604482015290519081900360640190fd5b607780546001600160a01b0319166001600160a01b0392909216919091179055565b607a54600160801b9004600f0b81565b607454600f0b81565b60765481565b61252761381c565b610f4a828261447d565b60006119d342610e1063ffffffff61448f16565b6066546001600160a01b031681565b61255f600033612304565b61259c576040805162461bcd60e51b81526020600482015260096024820152682737ba1030b236b4b760b91b604482015290519081900360640190fd5b6125a86002600a61397a565b607a8054600f9290920b6001600160801b03166001600160801b03199092169190911790556125d96003600a61397a565b607a80546001600160801b03908116600160801b600f94850b831681029190911792839055606e80546001600160801b031916918404850b93850b9390930190930b16919091179055565b60005b606554604080516370a0823160e01b815233600482015290516001600160a01b03909216916370a0823191602480820192602092909190829003018186803b15801561267257600080fd5b505afa158015612686573d6000803e3d6000fd5b505050506040513d602081101561269c57600080fd5b5051811015611cde5760655460408051632f745c5960e01b81523360048201526024810184905290516000926001600160a01b031691632f745c59916044808301926020929190829003018186803b1580156126f757600080fd5b505afa15801561270b573d6000803e3d6000fd5b505050506040513d602081101561272157600080fd5b50516000818152607360205260408120805491905590915061ffff811115612748575061ffff5b60655460408051630fc0057560e01b81526004810185905261ffff8416602482015290516001600160a01b0390921691630fc005759160448082019260009290919082900301818387803b15801561279f57600080fd5b505af11580156127b3573d6000803e3d6000fd5b50506001909401935061262792505050565b606c54600f0b81565b606d54600f0b81565b6069546001600160a01b031681565b606c54600160801b9004600f0b81565b600081815260336020526040812061101e906144f6565b8061281781614501565b61283a6128248351613cc0565b607a54600f90810b900b9063ffffffff6145f216565b61284381613da7565b612859336128546128248651613cc0565b613b97565b60005b83518110156128ea5760665484516001600160a01b03909116906342966c689086908490811061288857fe5b60200260200101516040518263ffffffff1660e01b815260040180828152602001915050600060405180830381600087803b1580156128c657600080fd5b505af11580156128da573d6000803e3d6000fd5b50506001909201915061285c9050565b50505050565b6065546001600160a01b031681565b62ffffff1690565b6067546001600160a01b031681565b60008160ff1660048460010160ff168161292c57fe5b0660ff1614905092915050565b6000828152603360205260409020600201546129579061158a613f39565b6117e95760405162461bcd60e51b81526004018080602001828103825260308152602001806153a66030913960400191505060405180910390fd5b67266666666666666681565b6129a9600033612304565b6129e6576040805162461bcd60e51b81526020600482015260096024820152682737ba1030b236b4b760b91b604482015290519081900360640190fd5b607980546001600160a01b0319166001600160a01b0392909216919091179055565b6001600160a01b0382166000908152607560209081526040808320546072909252822054612a37919084611ce1565b95945050505050565b612a4861381c565b6010811015612a94576040805162461bcd60e51b8152602060048201526013602482015272466967687458704761696e20746f6f206c6f7760681b604482015290519081900360640190fd5b6040811115612ae1576040805162461bcd60e51b815260206004820152601460248201527308cd2ced0e8b0e08ec2d2dc40e8dede40d0d2ced60631b604482015290519081900360640190fd5b607155565b606d54600160801b9004600f0b81565b612b01600033612304565b612b3e576040805162461bcd60e51b81526020600482015260096024820152682737ba1030b236b4b760b91b604482015290519081900360640190fd5b606980546001600160a01b0319166001600160a01b0392909216919091179055565b612b6861381c565b6019811015612bbe576040805162461bcd60e51b815260206004820152601a60248201527f5265666f726765576561706f6e56616c756520746f6f206c6f77000000000000604482015290519081900360640190fd5b6064811115612c14576040805162461bcd60e51b815260206004820152601b60248201527f5265666f726765576561706f6e56616c756520746f6f20686967680000000000604482015290519081900360640190fd5b6000612c2182606461397a565b607a54909150600f90810b810b9082900b13612c6e5760405162461bcd60e51b815260040180806020018281038252602181526020018061547e6021913960400191505060405180910390fd5b607a80546001600160801b03808216600160801b600f93840b8603840b83160217909255606e80546001600160801b0319169390910b90911691909117905550565b612cb8614628565b33612cc28161467c565b606d54600160801b9004600f0b612cd881613da7565b606d54612cf0903390600160801b9004600f0b613b97565b60695460408051630e20f61560e21b815233600482015290516000926001600160a01b031691633883d854916024808301926020929190829003018186803b158015612d3b57600080fd5b505afa158015612d4f573d6000803e3d6000fd5b505050506040513d6020811015612d6557600080fd5b5051606654604080516340c10f1960e01b81523360048201526024810184905290519293506001600160a01b03909116916340c10f19916044808201926020929091908290030181600087803b158015612dbe57600080fd5b505af1158015612dd2573d6000803e3d6000fd5b505050506040513d602081101561149257600080fd5b612df061381c565b610f4a8282613b11565b612e0261381c565b610f4a8282614704565b80612e1681613cde565b607a54600f0b612e2581613da7565b607a54612e36903390600f0b613b97565b60665460408051630852cd8d60e31b81526004810186905290516001600160a01b03909216916342966c689160248082019260009290919082900301818387803b158015612e8357600080fd5b505af1158015612e97573d6000803e3d6000fd5b50505050505050565b612ea8614628565b33612eb28161467c565b606b54600090612ec9906101009004600f0b610f8e565b3360009081526072602052604081205491925090612ee990829084611ce1565b606754604080516370a0823160e01b815233600482015290519295508594506001600160a01b0390911692506370a08231916024808301926020929190829003018186803b158015612f3a57600080fd5b505afa158015612f4e573d6000803e3d6000fd5b505050506040513d6020811015612f6457600080fd5b50511015612f7182614799565b60405160200180807602737ba1032b737bab3b41029a5a4a62610902732b2b21604d1b81525060170182805190602001908083835b60208310612fc55780518252601f199092019160209182019101612fa6565b6001836020036101000a038019825116818451168082178552505050505050905001915050604051602081830303815290604052906130825760405162461bcd60e51b81526004018080602001828103825283818151815260200191508051906020019080838360005b8381101561304757818101518382015260200161302f565b50505050905090810190601f1680156130745780820380516001836020036101000a031916815260200191505b509250505060405180910390fd5b50606b546130999033906101009004600f0b614871565b6077546040805163bf2a28cf60e01b815290516001600160a01b039092169163434d82a3913391849163bf2a28cf916004808301926020929190829003018186803b1580156130e757600080fd5b505afa1580156130fb573d6000803e3d6000fd5b505050506040513d602081101561311157600080fd5b5051604080516001600160e01b031960e086901b1681526001600160a01b0390931660048401526024830191909152516044808301926020929190829003018186803b15801561316057600080fd5b505afa158015613174573d6000803e3d6000fd5b505050506040513d602081101561318a57600080fd5b505115801561320d5750606554604080516370a0823160e01b815233600482015290516001600160a01b03909216916370a0823191602480820192602092909190829003018186803b1580156131df57600080fd5b505afa1580156131f3573d6000803e3d6000fd5b505050506040513d602081101561320957600080fd5b5051155b1561329d5761329d33613298607760009054906101000a90046001600160a01b03166001600160a01b0316635249fb6d6040518163ffffffff1660e01b815260040160206040518083038186803b15801561326757600080fd5b505afa15801561327b573d6000803e3d6000fd5b505050506040513d602081101561329157600080fd5b5051610f8e565b614704565b60695460408051630e20f61560e21b815233600482015290516000926001600160a01b031691633883d854916024808301926020929190829003018186803b1580156132e857600080fd5b505afa1580156132fc573d6000803e3d6000fd5b505050506040513d602081101561331257600080fd5b5051606554604080516340c10f1960e01b81523360048201526024810184905290519293506001600160a01b03909116916340c10f199160448082019260009290919082900301818387803b15801561336a57600080fd5b505af115801561337e573d6000803e3d6000fd5b5050606654604080516370a0823160e01b815233600482015290516001600160a01b0390921693506370a082319250602480820192602092909190829003018186803b1580156133cd57600080fd5b505afa1580156133e1573d6000803e3d6000fd5b505050506040513d60208110156133f757600080fd5b50516128ea576066546001600160a01b031663e8d5fe4433826380aa68cd60006134228760646148d6565b6040518363ffffffff1660e01b8152600401808381526020018281526020019250505060206040518083038186803b15801561345d57600080fd5b505afa158015613471573d6000803e3d6000fd5b505050506040513d602081101561348757600080fd5b505160665460408051630f9a2d8160e21b815260048181015260c86024820152604481018890526065606482015290516001600160a01b0390921691633e68b60491608480820192602092909190829003018186803b1580156134e957600080fd5b505afa1580156134fd573d6000803e3d6000fd5b505050506040513d602081101561351357600080fd5b50516000806135238860666148d6565b604080516001600160e01b031960e08a901b1681526001600160a01b03909716600488015261ffff958616602488015293851660448701529184166064860152909216608484015260a48301919091525160c48083019260209291908290030181600087803b15801561359557600080fd5b505af11580156135a9573d6000803e3d6000fd5b505050506040513d602081101561138a57600080fd5b6135c7615310565b6066546065546040805163acb586df60e01b815260048101879052905160009384936001600160a01b039182169363d58227c89389939092169163acb586df91602480820192602092909190829003018186803b15801561362757600080fd5b505afa15801561363b573d6000803e3d6000fd5b505050506040513d602081101561365157600080fd5b5051604080516001600160e01b031960e086901b168152600481019390935260ff9091166024830152516044808301926080929190829003018186803b15801561369a57600080fd5b505afa1580156136ae573d6000803e3d6000fd5b505050506040513d60808110156136c457600080fd5b508051604091820151606554835163017fe80960e01b8152600481018a90529351929550909350612a3792613758926001600160a01b039092169163017fe80991602480820192602092909190829003018186803b15801561372557600080fd5b505afa158015613739573d6000803e3d6000fd5b505050506040513d602081101561374f57600080fd5b50518484611b5e565b60655460408051630153b1ff60e61b8152600481018a905290516001600160a01b03909216916354ec7fc091602480820192602092909190829003018186803b1580156137a457600080fd5b505afa1580156137b8573d6000803e3d6000fd5b505050506040513d60208110156137ce57600080fd5b50516137d8612531565b61401b565b6137e561381c565b6137f081606461397a565b606d60106101000a8154816001600160801b030219169083600f0b6001600160801b0316021790555050565b604080516923a0a6a2afa0a226a4a760b11b8152905190819003600a0190206138459033612304565b613896576040805162461bcd60e51b815260206004820152601760248201527f4d697373696e672047414d455f41444d494e20726f6c65000000000000000000604482015290519081900360640190fd5b565b6001600160a01b0382166000908152607560209081526040808320546072909252822054829182916138cb919086611ce1565b9250925092506138e683607654613ab490919063ffffffff16565b6076556001600160a01b038516600090815260756020526040902054613912908463ffffffff613ab416565b6001600160a01b038616600090815260756020908152604080832093909355607290522054613947908363ffffffff613ab416565b6001600160a01b03808716600090815260726020526040902091909155606754611492911686308463ffffffff61416616565b60008161398657600080fd5b60006139928484614902565b905060016001607f1b036001600160801b03821611156122fb57600080fd5b6000816139c0575060006122fe565b600083600f0b12156139d157600080fd5b600f83900b6001600160801b038316810260401c90608084901c026001600160c01b03811115613a0057600080fd5b60401b8119811115613a1157600080fd5b019392505050565b6001600160a01b038116600090815260786020526040812054421015613a3b57fe5b6001600160a01b038216600090815260786020526040812054613a67906213c68063ffffffff6140b516565b90506000613a7b824263ffffffff614a4c16565b9150506213c680811115613a8b57fe5b6000613a9a826213c68061397a565b9050612a376726666666666666668263ffffffff6145f216565b600082821115613b0b576040805162461bcd60e51b815260206004820152601e60248201527f536166654d6174683a207375627472616374696f6e206f766572666c6f770000604482015290519081900360640190fd5b50900390565b606754610f4a906001600160a01b0316838363ffffffff61410f16565b6065546040805163095ea7b360e01b81526001600160a01b038481166004830152602482018690529151919092169163095ea7b391604480830192600092919082900301818387803b158015613b8357600080fd5b505af115801561138a573d6000803e3d6000fd5b610f4a82613ba483610f8e565b613898565b6066546040805163095ea7b360e01b81526001600160a01b038481166004830152602482018690529151919092169163095ea7b391604480830192600092919082900301818387803b158015613b8357600080fd5b6000613c0930614a72565b15905090565b600054610100900460ff1680613c285750613c28613bfe565b80613c36575060005460ff16155b613c715760405162461bcd60e51b815260040180806020018281038252602e8152602001806153d6602e913960400191505060405180910390fd5b600054610100900460ff16158015613c9c576000805460ff1961ff0019909116610100171660011790555b613ca4614a78565b613cac614a78565b8015611cde576000805461ff001916905550565b6000677fffffffffffffff821115613cd757600080fd5b5060401b90565b606654604080516331a9108f60e11b815260048101849052905133926001600160a01b031691636352211e916024808301926020929190829003018186803b158015613d2957600080fd5b505afa158015613d3d573d6000803e3d6000fd5b505050506040513d6020811015613d5357600080fd5b50516001600160a01b031614611cde576040805162461bcd60e51b81526020600482015260146024820152732737ba103a3432903bb2b0b837b71037bbb732b960611b604482015290519081900360640190fd5b6000613db282610f8e565b3360009081526075602090815260408083205460729092528220549293509091613ddd919084611ce1565b606754604080516370a0823160e01b815233600482015290519295508594506001600160a01b0390911692506370a08231916024808301926020929190829003018186803b158015613e2e57600080fd5b505afa158015613e42573d6000803e3d6000fd5b505050506040513d6020811015613e5857600080fd5b50511015613e6583614799565b60405160200180807602737ba1032b737bab3b41029a5a4a62610902732b2b21604d1b81525060170182805190602001908083835b60208310613eb95780518252601f199092019160209182019101613e9a565b6001836020036101000a038019825116818451168082178552505050505050905001915050604051602081830303815290604052906128ea5760405162461bcd60e51b815260206004820181815283516024840152835190928392604490910191908501908083836000831561304757818101518382015260200161302f565b3390565b6000828152603360205260409020613f5b908263ffffffff614b1816565b15610f4a57613f68613f39565b6001600160a01b0316816001600160a01b0316837f2f8788117e7eff1d82e926ec794901d17c78024a50270940304540a733656f0d60405160405180910390a45050565b6000828152603360205260409020613fca908263ffffffff614b2d16565b15610f4a57613fd7613f39565b6001600160a01b0316816001600160a01b0316837ff6391f5c32d9c69d2a47ea670b442974b53935d1edc7fd64eb21e047a839171b60405160405180910390a45050565b614023615310565b600061404761403c8567ffffffffffffffff16856148d6565b8662ffffff166148d6565b9050614051615310565b60005b60048110156140ab57600061406984836148d6565b90506303000000601882901b1661408562ffffff8a1683614b42565b1783836004811061409257fe5b63ffffffff909216602092909202015250600101614054565b5095945050505050565b6000828201838110156122fb576040805162461bcd60e51b815260206004820152601b60248201527f536166654d6174683a206164646974696f6e206f766572666c6f770000000000604482015290519081900360640190fd5b604080516001600160a01b038416602482015260448082018490528251808303909101815260649091019091526020810180516001600160e01b031663a9059cbb60e01b179052614161908490614b8f565b505050565b604080516001600160a01b0380861660248301528416604482015260648082018490528251808303909101815260849091019091526020810180516001600160e01b03166323b872dd60e01b1790526128ea908590614b8f565b611492858585856141cf612531565b86611a8e565b60695460408051630e20f61560e21b815233600482015290516000926001600160a01b031691633883d854916024808301926020929190829003018186803b15801561422057600080fd5b505afa158015614234573d6000803e3d6000fd5b505050506040513d602081101561424a57600080fd5b50519050600061425b868684614c40565b905060006142738561426e8560016148d6565b614c61565b905060008460ff166142858988614c72565b029050600061429c6142978888614c8e565b610f8e565b90508262ffffff168462ffffff1610156142b7575060009050805b336000908152607260205260409020541580156142d45750600081115b156142e2576142e233614d00565b8060726000336001600160a01b03166001600160a01b03168152602001908152602001600020600082825401925050819055508161ffff16607360008d8152602001908152602001600020600082825401925050819055508a336001600160a01b03167f7a58aac6530017822bf3210fccef7efa31f56277f19966bc887bfb11f40ca96d8c60088c62ffffff1663ffffffff16901b63ff000000168b62ffffff161788888888604051808781526020018663ffffffff1663ffffffff1681526020018562ffffff1662ffffff1681526020018462ffffff1662ffffff1681526020018361ffff1661ffff168152602001828152602001965050505050505060405180910390a35050505050505050505050565b60006122fb8383614d1c565b60006122fb836001600160a01b038416614d80565b6000600f83810b9083900b0160016001607f1b03198112801590614441575060016001607f1b038113155b6122fb57600080fd5b6000600f82810b9084900b0360016001607f1b03198112801590614441575060016001607f1b038113156122fb57600080fd5b610f4a8261448a83610f8e565b613b11565b60008082116144e5576040805162461bcd60e51b815260206004820152601a60248201527f536166654d6174683a206469766973696f6e206279207a65726f000000000000604482015290519081900360640190fd5b8183816144ee57fe5b049392505050565b600061101e82614d98565b60005b8151811015610f4a57606654825133916001600160a01b031690636352211e9085908590811061453057fe5b60200260200101516040518263ffffffff1660e01b81526004018082815260200191505060206040518083038186803b15801561456c57600080fd5b505afa158015614580573d6000803e3d6000fd5b505050506040513d602081101561459657600080fd5b50516001600160a01b0316146145ea576040805162461bcd60e51b81526020600482015260146024820152732737ba103a3432903bb2b0b837b71037bbb732b960611b604482015290519081900360640190fd5b600101614504565b6000600f83810b9083900b0260401d60016001607f1b03198112801590614441575060016001607f1b038113156122fb57600080fd5b323314613896576040805162461bcd60e51b815260206004820152601c60248201527f4f6e6c7920454f4120616c6c6f776564202874656d706f726172792900000000604482015290519081900360640190fd5b6001600160a01b03811660009081526070602052604090205443116146e8576040805162461bcd60e51b815260206004820152601c60248201527f4f6e6c792063616c6c61626c65206f6e63652070657220626c6f636b00000000604482015290519081900360640190fd5b6001600160a01b03166000908152607060205260409020439055565b607654614717908263ffffffff6140b516565b6076556001600160a01b038216600090815260756020526040902054614743908263ffffffff6140b516565b6001600160a01b038316600081815260756020908152604091829020939093558051848152905191927f3443ca0a6a2d7fbb0e0c0612adb07cdcbde092e281a3dddc6ed66c14c00429cd92918290030190a25050565b6060816147be57506040805180820190915260018152600360fc1b6020820152611021565b8160005b81156147d657600101600a820491506147c2565b60608167ffffffffffffffff811180156147ef57600080fd5b506040519080825280601f01601f19166020018201604052801561481a576020820181803683370190505b50905060001982015b851561486857600a860660300160f81b8282806001900393508151811061484657fe5b60200101906001600160f81b031916908160001a905350600a86049550614823565b50949350505050565b600061487c82610f8e565b6001600160a01b0384166000908152607260205260408120549192509081906148a790829085611ce1565b6001600160a01b038816600090815260726020526040902054919450925061394791508363ffffffff613ab416565b604080516020808201949094528082019290925280518083038201815260609092019052805191012090565b60008161490e57600080fd5b60006001600160c01b0384116149335782604085901b8161492b57fe5b049050614a38565b60c084811c640100000000811061494c576020918201911c5b62010000811061495e576010918201911c5b610100811061496f576008918201911c5b6010811061497f576004918201911c5b6004811061498f576002918201911c5b6002811061499e576001820191505b60bf820360018603901c6001018260ff0387901b816149b957fe5b0492506001600160801b038311156149d057600080fd5b608085901c83026001600160801b038616840260c088901c604089901b828110156149fc576001820391505b608084901b92900382811015614a13576001820391505b829003608084901c8214614a2357fe5b888181614a2c57fe5b04870196505050505050505b6001600160801b038111156122fb57600080fd5b60008083831115614a6257506000905080614a6b565b50600190508183035b9250929050565b3b151590565b600054610100900460ff1680614a915750614a91613bfe565b80614a9f575060005460ff16155b614ada5760405162461bcd60e51b815260040180806020018281038252602e8152602001806153d6602e913960400191505060405180910390fd5b600054610100900460ff16158015613cac576000805460ff1961ff0019909116610100171660011790558015611cde576000805461ff001916905550565b60006122fb836001600160a01b038416614d9c565b60006122fb836001600160a01b038416614de6565b600080614b5684600a63ffffffff61448f16565b9050614b87614b776000614b7184600263ffffffff614eac16565b86614f05565b611b84868463ffffffff613ab416565b949350505050565b6060614be4826040518060400160405280602081526020017f5361666545524332303a206c6f772d6c6576656c2063616c6c206661696c6564815250856001600160a01b0316614f6f9092919063ffffffff16565b80519091501561416157808060200190516020811015614c0357600080fd5b50516141615760405162461bcd60e51b815260040180806020018281038252602a815260200180615425602a913960400191505060405180910390fd5b600080614c528562ffffff1684614b42565b9050612a3781611098866123a5565b60006122fb8362ffffff1683614b42565b60006122fb6071546110988462ffffff168662ffffff1661397a565b60006122fb614cea614ca28460ff16613cc0565b614cdb614cbe614cb98862ffffff166103e861397a565b614f7e565b606c54600160801b9004600f90810b900b9063ffffffff6145f216565b600f0b9063ffffffff6145f216565b606d54600f90810b900b9063ffffffff61441616565b6001600160a01b03166000908152607860205260409020429055565b81546000908210614d5e5760405162461bcd60e51b815260040180806020018281038252602281526020018061532f6022913960400191505060405180910390fd5b826000018281548110614d6d57fe5b9060005260206000200154905092915050565b60009081526001919091016020526040902054151590565b5490565b6000614da88383614d80565b614dde575081546001818101845560008481526020808220909301849055845484825282860190935260409020919091556122fe565b5060006122fe565b60008181526001830160205260408120548015614ea25783546000198083019190810190600090879083908110614e1957fe5b9060005260206000200154905080876000018481548110614e3657fe5b600091825260208083209091019290925582815260018981019092526040902090840190558654879080614e6657fe5b600190038181906000526020600020016000905590558660010160008781526020019081526020016000206000905560019450505050506122fe565b60009150506122fe565b600082614ebb575060006122fe565b82820282848281614ec857fe5b04146122fb5760405162461bcd60e51b81526004018080602001828103825260218152602001806154046021913960400191505060405180910390fd5b600080614f1d6001611b84868863ffffffff613ab416565b6040805160208082018790528251808303820181529183019092528051910120909150600090614f53908363ffffffff614fa016565b9050614f65818763ffffffff6140b516565b9695505050505050565b6060611b908484600085615007565b60008082600f0b1215614f9057600080fd5b61101e604083600f0b901b615163565b6000808211614ff6576040805162461bcd60e51b815260206004820152601860248201527f536166654d6174683a206d6f64756c6f206279207a65726f0000000000000000604482015290519081900360640190fd5b818381614fff57fe5b069392505050565b6060824710156150485760405162461bcd60e51b81526004018080602001828103825260268152602001806153806026913960400191505060405180910390fd5b61505185614a72565b6150a2576040805162461bcd60e51b815260206004820152601d60248201527f416464726573733a2063616c6c20746f206e6f6e2d636f6e7472616374000000604482015290519081900360640190fd5b60006060866001600160a01b031685876040518082805190602001908083835b602083106150e15780518252601f1990920191602091820191016150c2565b6001836020036101000a03801982511681845116808217855250505050505090500191505060006040518083038185875af1925050503d8060008114615143576040519150601f19603f3d011682016040523d82523d6000602084013e615148565b606091505b50915091506151588282866152aa565b979650505050505050565b60008161517257506000611021565b816001600160801b821061518b5760809190911c9060401b5b6801000000000000000082106151a65760409190911c9060201b5b64010000000082106151bd5760209190911c9060101b5b6201000082106151d25760109190911c9060081b5b61010082106151e65760089190911c9060041b5b601082106151f95760049190911c9060021b5b600882106152055760011b5b600181858161521057fe5b048201901c9050600181858161522257fe5b048201901c9050600181858161523457fe5b048201901c9050600181858161524657fe5b048201901c9050600181858161525857fe5b048201901c9050600181858161526a57fe5b048201901c9050600181858161527c57fe5b048201901c9050600081858161528e57fe5b04905080821061529e57806152a0565b815b9350505050611021565b606083156152b9575081611b93565b8251156152c95782518084602001fd5b60405162461bcd60e51b815260206004820181815284516024840152845185939192839260440191908501908083836000831561304757818101518382015260200161302f565b6040518060800160405280600490602082028036833750919291505056fe456e756d657261626c655365743a20696e646578206f7574206f6620626f756e6473416363657373436f6e74726f6c3a2073656e646572206d75737420626520616e2061646d696e20746f206772616e74416464726573733a20696e73756666696369656e742062616c616e636520666f722063616c6c416363657373436f6e74726f6c3a2073656e646572206d75737420626520616e2061646d696e20746f207265766f6b65496e697469616c697a61626c653a20636f6e747261637420697320616c726561647920696e697469616c697a6564536166654d6174683a206d756c7469706c69636174696f6e206f766572666c6f775361666545524332303a204552433230206f7065726174696f6e20646964206e6f742073756363656564416363657373436f6e74726f6c3a2063616e206f6e6c792072656e6f756e636520726f6c657320666f722073656c665265666f72676520666565206d75737420696e636c756465206275726e20666565a2646970667358221220ae222f74f714497fac34fa0a0f1581e77999f4d9ba8088cb118acc90e5635e1a64736f6c63430006050033",
  "immutableReferences": {},
  "source": "pragma solidity ^0.6.0;\r\n\r\nimport \"@openzeppelin/contracts-upgradeable/proxy/Initializable.sol\";\r\nimport \"@openzeppelin/contracts-upgradeable/access/AccessControlUpgradeable.sol\";\r\nimport \"@openzeppelin/contracts/math/SafeMath.sol\";\r\nimport \"abdk-libraries-solidity/ABDKMath64x64.sol\";\r\nimport \"@openzeppelin/contracts/token/ERC20/IERC20.sol\";\r\nimport \"@openzeppelin/contracts/token/ERC20/SafeERC20.sol\";\r\nimport \"./interfaces/IStakeFromGame.sol\";\r\nimport \"./interfaces/IRandoms.sol\";\r\nimport \"./interfaces/IPriceOracle.sol\";\r\nimport \"./characters.sol\";\r\nimport \"./Promos.sol\";\r\nimport \"./weapons.sol\";\r\nimport \"./util.sol\";\r\n\r\ncontract CryptoBlades is Initializable, AccessControlUpgradeable {\r\n    using ABDKMath64x64 for int128;\r\n    using SafeMath for uint256;\r\n    using SafeMath for uint64;\r\n    using SafeERC20 for IERC20;\r\n\r\n    bytes32 public constant GAME_ADMIN = keccak256(\"GAME_ADMIN\");\r\n\r\n    int128 public constant REWARDS_CLAIM_TAX_MAX = 2767011611056432742; // = ~0.15 = ~15%\r\n    uint256 public constant REWARDS_CLAIM_TAX_DURATION = 15 days;\r\n\r\n    Characters public characters;\r\n    Weapons public weapons;\r\n    IERC20 public skillToken;//0x154A9F9cbd3449AD22FDaE23044319D6eF2a1Fab;\r\n    IPriceOracle public priceOracleSkillPerUsd;\r\n    IRandoms public randoms;\r\n\r\n    function initialize(IERC20 _skillToken, Characters _characters, Weapons _weapons, IPriceOracle _priceOracleSkillPerUsd, IRandoms _randoms) public initializer {\r\n        __AccessControl_init();\r\n\r\n        _setupRole(DEFAULT_ADMIN_ROLE, msg.sender);\r\n        _setupRole(GAME_ADMIN, msg.sender);\r\n\r\n        skillToken = _skillToken;\r\n        characters = _characters;\r\n        weapons = _weapons;\r\n        priceOracleSkillPerUsd = _priceOracleSkillPerUsd;\r\n        randoms = _randoms;\r\n\r\n        staminaCostFight = 40;\r\n        mintCharacterFee = ABDKMath64x64.divu(10, 1);//10 usd;\r\n        mintWeaponFee = ABDKMath64x64.divu(3, 1);//3 usd;\r\n\r\n        // migrateTo_1ee400a\r\n        fightXpGain = 32;\r\n\r\n        // migrateTo_aa9da90\r\n        oneFrac = ABDKMath64x64.fromUInt(1);\r\n        fightTraitBonus = ABDKMath64x64.divu(75, 1000);\r\n\r\n        // migrateTo_7dd2a56\r\n        // numbers given for the curves were $4.3-aligned so they need to be multiplied\r\n        // additional accuracy may be in order for the setter functions for these\r\n        fightRewardGasOffset = ABDKMath64x64.divu(23177, 100000); // 0.0539 x 4.3\r\n        fightRewardBaseline = ABDKMath64x64.divu(344, 1000); // 0.08 x 4.3\r\n\r\n        // migrateTo_5e833b0\r\n        durabilityCostFight = 1;\r\n    }\r\n\r\n    function migrateTo_ef994e2(Promos _promos) public {\r\n        require(hasRole(DEFAULT_ADMIN_ROLE, msg.sender), \"Not admin\");\r\n\r\n        promos = _promos;\r\n    }\r\n\r\n    function migrateTo_23b3a8b(IStakeFromGame _stakeFromGame) external {\r\n        require(hasRole(DEFAULT_ADMIN_ROLE, msg.sender), \"Not admin\");\r\n\r\n        stakeFromGameImpl = _stakeFromGame;\r\n    }\r\n\r\n    function migrateTo_801f279() external {\r\n        require(hasRole(DEFAULT_ADMIN_ROLE, msg.sender), \"Not admin\");\r\n\r\n        burnWeaponFee = ABDKMath64x64.divu(2, 10);//0.2 usd;\r\n        reforgeWeaponWithDustFee = ABDKMath64x64.divu(3, 10);//0.3 usd;\r\n\r\n        reforgeWeaponFee = burnWeaponFee + reforgeWeaponWithDustFee;//0.5 usd;\r\n    }\r\n\r\n    // UNUSED; KEPT FOR UPGRADEABILITY PROXY COMPATIBILITY\r\n    uint characterLimit;\r\n    // config vars\r\n    uint8 staminaCostFight;\r\n\r\n    // prices & payouts are in USD, with 4 decimals of accuracy in 64.64 fixed point format\r\n    int128 public mintCharacterFee;\r\n    //int128 public rerollTraitFee;\r\n    //int128 public rerollCosmeticsFee;\r\n    int128 public refillStaminaFee;\r\n    // lvl 1 player power could be anywhere between ~909 to 1666\r\n    // cents per fight multiplied by monster power divided by 1000 (lv1 power)\r\n    int128 public fightRewardBaseline;\r\n    int128 public fightRewardGasOffset;\r\n\r\n    int128 public mintWeaponFee;\r\n    int128 public reforgeWeaponFee;\r\n\r\n    uint256 nonce;\r\n\r\n    mapping(address => uint256) lastBlockNumberCalled;\r\n\r\n    uint256 public fightXpGain; // multiplied based on power differences\r\n\r\n    mapping(address => uint256) tokenRewards; // user adress : skill wei\r\n    mapping(uint256 => uint256) xpRewards; // character id : xp\r\n\r\n    int128 public oneFrac; // 1.0\r\n    int128 public fightTraitBonus; // 7.5%\r\n\r\n    mapping(address => uint256) public inGameOnlyFunds;\r\n    uint256 public totalInGameOnlyFunds;\r\n\r\n    Promos public promos;\r\n\r\n    mapping(address => uint256) private _rewardsClaimTaxTimerStart;\r\n\r\n    IStakeFromGame public stakeFromGameImpl;\r\n\r\n    uint8 durabilityCostFight;\r\n\r\n    int128 public burnWeaponFee;\r\n    int128 public reforgeWeaponWithDustFee;\r\n\r\n    event FightOutcome(address indexed owner, uint256 indexed character, uint256 weapon, uint32 target, uint24 playerRoll, uint24 enemyRoll, uint16 xpGain, uint256 skillGain);\r\n    event InGameOnlyFundsGiven(address indexed to, uint256 skillAmount);\r\n\r\n    function recoverSkill(uint256 amount) public {\r\n        require(hasRole(DEFAULT_ADMIN_ROLE, msg.sender), \"Not admin\");\r\n\r\n        skillToken.safeTransfer(msg.sender, amount);\r\n    }\r\n\r\n    function getSkillToSubtract(uint256 _inGameOnlyFunds, uint256 _tokenRewards, uint256 _skillNeeded)\r\n        public\r\n        pure\r\n        returns (uint256 fromInGameOnlyFunds, uint256 fromTokenRewards, uint256 fromUserWallet) {\r\n\r\n        if(_skillNeeded <= _inGameOnlyFunds) {\r\n            return (_skillNeeded, 0, 0);\r\n        }\r\n\r\n        _skillNeeded -= _inGameOnlyFunds;\r\n\r\n        if(_skillNeeded <= _tokenRewards) {\r\n            return (_inGameOnlyFunds, _skillNeeded, 0);\r\n        }\r\n\r\n        _skillNeeded -= _tokenRewards;\r\n\r\n        return (_inGameOnlyFunds, _tokenRewards, _skillNeeded);\r\n    }\r\n\r\n    function getSkillNeededFromUserWallet(address playerAddress, uint256 skillNeeded)\r\n        public\r\n        view\r\n        returns (uint256 skillNeededFromUserWallet) {\r\n\r\n        (,, skillNeededFromUserWallet) = getSkillToSubtract(\r\n            inGameOnlyFunds[playerAddress],\r\n            tokenRewards[playerAddress],\r\n            skillNeeded\r\n        );\r\n    }\r\n\r\n    function getMyCharacters() public view returns(uint256[] memory) {\r\n        uint256[] memory tokens = new uint256[](characters.balanceOf(msg.sender));\r\n        for(uint256 i = 0; i < tokens.length; i++) {\r\n            tokens[i] = characters.tokenOfOwnerByIndex(msg.sender, i);\r\n        }\r\n        return tokens;\r\n    }\r\n\r\n    function getMyWeapons() public view returns(uint256[] memory) {\r\n        uint256[] memory tokens = new uint256[](weapons.balanceOf(msg.sender));\r\n        for(uint256 i = 0; i < tokens.length; i++) {\r\n            tokens[i] = weapons.tokenOfOwnerByIndex(msg.sender, i);\r\n        }\r\n        return tokens;\r\n    }\r\n\r\n    function unpackFightData(uint96 playerData)\r\n        public pure returns (uint8 charTrait, uint24 basePowerLevel, uint64 timestamp) {\r\n\r\n        charTrait = uint8(playerData & 0xFF);\r\n        basePowerLevel = uint24((playerData >> 8) & 0xFFFFFF);\r\n        timestamp = uint64((playerData >> 32) & 0xFFFFFFFFFFFFFFFF);\r\n    }\r\n\r\n    function fight(uint256 char, uint256 wep, uint32 target, uint8 fightMultiplier) external\r\n            // These have been combined due to error: CompilerError: Stack too deep, try removing local variables. TODO\r\n            // onlyNonContract\r\n            // isCharacterOwner(char)\r\n            // isWeaponOwner(wep) {\r\n        fightModifierChecks(char, wep) {\r\n        require(fightMultiplier > 0);\r\n\r\n        (uint8 charTrait, uint24 basePowerLevel, uint64 timestamp) =\r\n            unpackFightData(characters.getFightDataAndDrainStamina(char, staminaCostFight * fightMultiplier));\r\n\r\n        (int128 weaponMultTarget,\r\n            int128 weaponMultFight,\r\n            uint24 weaponBonusPower,\r\n            uint8 weaponTrait) = weapons.getFightDataAndDrainDurability(wep, charTrait,\r\n                durabilityCostFight * fightMultiplier);\r\n\r\n        _verifyFight(\r\n            basePowerLevel,\r\n            weaponMultTarget,\r\n            weaponBonusPower,\r\n            timestamp,\r\n            target\r\n        );\r\n        performFight(\r\n            char,\r\n            wep,\r\n            getPlayerPower(basePowerLevel, weaponMultFight, weaponBonusPower),\r\n            uint24(charTrait | (uint24(weaponTrait) << 8) | (target & 0xFF000000) >> 8),\r\n            uint24(target & 0xFFFFFF),\r\n            fightMultiplier\r\n        );\r\n    }\r\n\r\n    function _verifyFight(\r\n        uint24 basePowerLevel,\r\n        int128 weaponMultTarget,\r\n        uint24 weaponBonusPower,\r\n        uint64 timestamp,\r\n        uint32 target\r\n    ) internal view {\r\n        verifyFight(\r\n            basePowerLevel,\r\n            weaponMultTarget,\r\n            weaponBonusPower,\r\n            timestamp,\r\n            getCurrentHour(),\r\n            target\r\n        );\r\n    }\r\n\r\n    function verifyFight(\r\n        uint24 playerBasePower,\r\n        int128 wepMultiplier,\r\n        uint24 wepBonusPower,\r\n        uint64 staminaTimestamp,\r\n        uint256 hour,\r\n        uint32 target\r\n    ) public pure {\r\n\r\n        uint32[4] memory targets = getTargetsInternal(\r\n            getPlayerPower(playerBasePower, wepMultiplier, wepBonusPower),\r\n            staminaTimestamp,\r\n            hour\r\n        );\r\n        bool foundMatch = false;\r\n        for(uint i = 0; i < targets.length; i++) {\r\n            if(targets[i] == target) {\r\n                foundMatch = true;\r\n                i = targets.length;\r\n            }\r\n        }\r\n        require(foundMatch, \"Target invalid\");\r\n    }\r\n\r\n    function performFight(\r\n        uint256 char,\r\n        uint256 wep,\r\n        uint24 playerFightPower,\r\n        uint24 traitsCWE, // could fit into uint8 since each trait is only stored on 2 bits (TODO)\r\n        uint24 targetPower,\r\n        uint8 fightMultiplier\r\n    ) private {\r\n        uint256 seed = randoms.getRandomSeed(msg.sender);\r\n        uint24 playerRoll = getPlayerPowerRoll(playerFightPower,traitsCWE,seed);\r\n        uint24 monsterRoll = getMonsterPowerRoll(targetPower, RandomUtil.combineSeeds(seed,1));\r\n\r\n        uint16 xp = getXpGainForFight(playerFightPower, targetPower) * fightMultiplier;\r\n        uint256 tokens = usdToSkill(getTokenGainForFight(targetPower, fightMultiplier));\r\n\r\n        if(playerRoll < monsterRoll) {\r\n            tokens = 0;\r\n            xp = 0;\r\n        }\r\n\r\n        if(tokenRewards[msg.sender] == 0 && tokens > 0) {\r\n            _startRewardsClaimTaxTimer(msg.sender);\r\n        }\r\n\r\n        // this may seem dumb but we want to avoid guessing the outcome based on gas estimates!\r\n        tokenRewards[msg.sender] += tokens;\r\n        xpRewards[char] += xp;\r\n\r\n        emit FightOutcome(msg.sender, char, wep, (targetPower | ((uint32(traitsCWE) << 8) & 0xFF000000)), playerRoll, monsterRoll, xp, tokens);\r\n    }\r\n\r\n    function getMonsterPower(uint32 target) public pure returns (uint24) {\r\n        return uint24(target & 0xFFFFFF);\r\n    }\r\n\r\n    function getTokenGainForFight(uint24 monsterPower, uint8 fightMultiplier) internal view returns (int128) {\r\n        return fightRewardGasOffset.add(\r\n            fightRewardBaseline.mul(\r\n                ABDKMath64x64.sqrt(\r\n                    // Performance optimization: 1000 = getPowerAtLevel(0)\r\n                    ABDKMath64x64.divu(monsterPower, 1000)\r\n                )\r\n            ).mul(ABDKMath64x64.fromUInt(fightMultiplier))\r\n        );\r\n    }\r\n\r\n    function getXpGainForFight(uint24 playerPower, uint24 monsterPower) internal view returns (uint16) {\r\n        return uint16(ABDKMath64x64.divu(monsterPower, playerPower).mulu(fightXpGain));\r\n    }\r\n\r\n    function getPlayerPowerRoll(\r\n        uint24 playerFightPower,\r\n        uint24 traitsCWE,\r\n        uint256 seed\r\n    ) internal view returns(uint24) {\r\n\r\n        uint256 playerPower = RandomUtil.plusMinus10PercentSeeded(playerFightPower,seed);\r\n        return uint24(getPlayerTraitBonusAgainst(traitsCWE).mulu(playerPower));\r\n    }\r\n\r\n    function getMonsterPowerRoll(uint24 monsterPower, uint256 seed) internal pure returns(uint24) {\r\n        // roll for fights\r\n        return uint24(RandomUtil.plusMinus10PercentSeeded(monsterPower, seed));\r\n    }\r\n\r\n    function getPlayerPower(\r\n        uint24 basePower,\r\n        int128 weaponMultiplier,\r\n        uint24 bonusPower\r\n    ) public pure returns(uint24) {\r\n        return uint24(weaponMultiplier.mulu(basePower).add(bonusPower));\r\n    }\r\n\r\n    function getPlayerTraitBonusAgainst(uint24 traitsCWE) public view returns (int128) {\r\n        int128 traitBonus = oneFrac;\r\n        uint8 characterTrait = uint8(traitsCWE & 0xFF);\r\n        if(characterTrait == (traitsCWE >> 8) & 0xFF/*wepTrait*/) {\r\n            traitBonus = traitBonus.add(fightTraitBonus);\r\n        }\r\n        if(isTraitEffectiveAgainst(characterTrait, uint8(traitsCWE >> 16)/*enemy*/)) {\r\n            traitBonus = traitBonus.add(fightTraitBonus);\r\n        }\r\n        else if(isTraitEffectiveAgainst(uint8(traitsCWE >> 16)/*enemy*/, characterTrait)) {\r\n            traitBonus = traitBonus.sub(fightTraitBonus);\r\n        }\r\n        return traitBonus;\r\n    }\r\n\r\n    function getTargets(uint256 char, uint256 wep) public view returns (uint32[4] memory) {\r\n        (int128 weaponMultTarget,,\r\n            uint24 weaponBonusPower,\r\n            ) = weapons.getFightData(wep, characters.getTrait(char));\r\n\r\n        return getTargetsInternal(\r\n            getPlayerPower(characters.getPower(char), weaponMultTarget, weaponBonusPower),\r\n            characters.getStaminaTimestamp(char),\r\n            getCurrentHour()\r\n        );\r\n    }\r\n\r\n    function getTargetsInternal(uint24 playerPower,\r\n        uint64 staminaTimestamp,\r\n        uint256 currentHour\r\n    ) private pure returns (uint32[4] memory) {\r\n        // 4 targets, roll powers based on character + weapon power\r\n        // trait bonuses not accounted for\r\n        // targets expire on the hour\r\n\r\n        uint256 baseSeed = RandomUtil.combineSeeds(\r\n            RandomUtil.combineSeeds(staminaTimestamp,\r\n            currentHour),\r\n            playerPower\r\n        );\r\n\r\n        uint32[4] memory targets;\r\n        for(uint i = 0; i < targets.length; i++) {\r\n            // we alter seed per-index or they would be all the same\r\n            uint256 indexSeed = RandomUtil.combineSeeds(baseSeed, i);\r\n            targets[i] = uint32(\r\n                RandomUtil.plusMinus10PercentSeeded(playerPower, indexSeed) // power\r\n                | (uint32(indexSeed % 4) << 24) // trait\r\n            );\r\n        }\r\n\r\n        return targets;\r\n    }\r\n\r\n    function isTraitEffectiveAgainst(uint8 attacker, uint8 defender) public pure returns (bool) {\r\n        return (((attacker + 1) % 4) == defender); // Thanks to Tourist\r\n    }\r\n\r\n    function mintCharacter() public onlyNonContract oncePerBlock(msg.sender) {\r\n\r\n        uint256 skillAmount = usdToSkill(mintCharacterFee);\r\n        (,, uint256 fromUserWallet) =\r\n            getSkillToSubtract(\r\n                0,\r\n                tokenRewards[msg.sender],\r\n                skillAmount\r\n            );\r\n        require(skillToken.balanceOf(msg.sender) >= fromUserWallet,\r\n            string(abi.encodePacked(\"Not enough SKILL! Need \",RandomUtil.uint2str(fromUserWallet))));\r\n\r\n        _payContractTokenOnly(msg.sender, mintCharacterFee);\r\n\r\n        if(!promos.getBit(msg.sender, promos.BIT_FIRST_CHARACTER()) && characters.balanceOf(msg.sender) == 0) {\r\n            _giveInGameOnlyFundsFromContractBalance(msg.sender, usdToSkill(promos.firstCharacterPromoInGameOnlyFundsGivenInUsd()));\r\n        }\r\n\r\n        uint256 seed = randoms.getRandomSeed(msg.sender);\r\n        characters.mint(msg.sender, seed);\r\n\r\n        // first weapon free with a character mint, max 1 star\r\n        if(weapons.balanceOf(msg.sender) == 0) {\r\n            weapons.performMintWeapon(msg.sender,\r\n                weapons.getRandomProperties(0, RandomUtil.combineSeeds(seed,100)),\r\n                weapons.getRandomStat(4, 200, seed, 101),\r\n                0, // stat2\r\n                0, // stat3\r\n                RandomUtil.combineSeeds(seed,102)\r\n            );\r\n        }\r\n    }\r\n\r\n    function mintWeapon() public onlyNonContract oncePerBlock(msg.sender) requestPayFromPlayer(mintWeaponFee) {\r\n        _payContract(msg.sender, mintWeaponFee);\r\n\r\n        uint256 seed = randoms.getRandomSeed(msg.sender);\r\n        weapons.mint(msg.sender, seed);\r\n    }\r\n\r\n    function burnWeapon(uint256 burnID) public\r\n            isWeaponOwner(burnID) requestPayFromPlayer(burnWeaponFee) {\r\n        _payContract(msg.sender, burnWeaponFee);\r\n        weapons.burn(burnID);\r\n    }\r\n\r\n    function burnWeapons(uint256[] memory burnIDs) public\r\n            isWeaponsOwner(burnIDs) requestPayFromPlayer(burnWeaponFee.mul(ABDKMath64x64.fromUInt(burnIDs.length))) {\r\n        _payContract(msg.sender, burnWeaponFee.mul(ABDKMath64x64.fromUInt(burnIDs.length)));\r\n        for(uint i = 0; i < burnIDs.length; i++) {\r\n            weapons.burn(burnIDs[i]);\r\n        }\r\n    }\r\n\r\n    function reforgeWeapon(uint256 reforgeID, uint256 burnID) public\r\n            isWeaponOwner(reforgeID) isWeaponOwner(burnID) requestPayFromPlayer(reforgeWeaponFee) {\r\n        _payContract(msg.sender, reforgeWeaponFee);\r\n        weapons.reforge(reforgeID, burnID);\r\n    }\r\n\r\n    function reforgeWeaponWithDust(uint256 reforgeID, uint8 amountLB, uint8 amount4B, uint8 amount5B) public\r\n            isWeaponOwner(reforgeID) requestPayFromPlayer(reforgeWeaponWithDustFee) {\r\n        _payContract(msg.sender, reforgeWeaponWithDustFee);\r\n        weapons.reforgeWithDust(reforgeID, amountLB, amount4B, amount5B);\r\n    }\r\n\r\n    function migrateRandoms(IRandoms _newRandoms) external {\r\n        require(hasRole(DEFAULT_ADMIN_ROLE, msg.sender), \"Not admin\");\r\n        randoms = _newRandoms;\r\n    }\r\n\r\n    modifier fightModifierChecks(uint256 char, uint256 wep) {\r\n        require(tx.origin == msg.sender, \"Only EOA allowed (temporary)\");\r\n        require(characters.ownerOf(char) == msg.sender, \"Not the character owner\");\r\n        require(weapons.ownerOf(wep) == msg.sender, \"Not the weapon owner\");\r\n        _;\r\n    }\r\n\r\n    modifier onlyNonContract() {\r\n        _onlyNonContract();\r\n        _;\r\n    }\r\n\r\n    function _onlyNonContract() internal view {\r\n        require(tx.origin == msg.sender, \"Only EOA allowed (temporary)\");\r\n    }\r\n\r\n    modifier restricted() {\r\n        _restricted();\r\n        _;\r\n    }\r\n\r\n    function _restricted() internal view {\r\n        require(hasRole(GAME_ADMIN, msg.sender), \"Missing GAME_ADMIN role\");\r\n    }\r\n\r\n    modifier oncePerBlock(address user) {\r\n        _oncePerBlock(user);\r\n        _;\r\n    }\r\n\r\n    function _oncePerBlock(address user) internal {\r\n        require(lastBlockNumberCalled[user] < block.number, \"Only callable once per block\");\r\n        lastBlockNumberCalled[user] = block.number;\r\n    }\r\n\r\n    modifier isWeaponOwner(uint256 weapon) {\r\n        _isWeaponOwner(weapon);\r\n        _;\r\n    }\r\n\r\n    function _isWeaponOwner(uint256 weapon) internal view {\r\n        require(weapons.ownerOf(weapon) == msg.sender, \"Not the weapon owner\");\r\n    }\r\n\r\n    modifier isWeaponsOwner(uint256[] memory weaponArray) {\r\n        _isWeaponsOwner(weaponArray);\r\n        _;\r\n    }\r\n\r\n    function _isWeaponsOwner(uint256[] memory weaponArray) internal view {\r\n        for(uint i = 0; i < weaponArray.length; i++) {\r\n            require(weapons.ownerOf(weaponArray[i]) == msg.sender, \"Not the weapon owner\");\r\n        }\r\n    }\r\n\r\n    modifier isCharacterOwner(uint256 character) {\r\n        _isCharacterOwner(character);\r\n        _;\r\n    }\r\n\r\n    function _isCharacterOwner(uint256 character) internal view {\r\n        require(characters.ownerOf(character) == msg.sender, \"Not the character owner\");\r\n    }\r\n\r\n    modifier isTargetValid(uint256 character, uint256 weapon, uint32 target) {\r\n        bool foundMatch = false;\r\n        uint32[4] memory targets = getTargets(character, weapon);\r\n        for(uint i = 0; i < targets.length; i++) {\r\n            if(targets[i] == target) {\r\n                foundMatch = true;\r\n            }\r\n        }\r\n        require(foundMatch, \"Target invalid\");\r\n        _;\r\n    }\r\n\r\n    modifier requestPayFromPlayer(int128 usdAmount) {\r\n        _requestPayFromPlayer(usdAmount);\r\n        _;\r\n    }\r\n\r\n    function _requestPayFromPlayer(int128 usdAmount) internal view {\r\n        uint256 skillAmount = usdToSkill(usdAmount);\r\n\r\n        (,, uint256 fromUserWallet) =\r\n            getSkillToSubtract(\r\n                inGameOnlyFunds[msg.sender],\r\n                tokenRewards[msg.sender],\r\n                skillAmount\r\n            );\r\n\r\n        require(skillToken.balanceOf(msg.sender) >= fromUserWallet,\r\n            string(abi.encodePacked(\"Not enough SKILL! Need \",RandomUtil.uint2str(skillAmount))));\r\n    }\r\n\r\n    function payContract(address playerAddress, int128 usdAmount) public restricted {\r\n        _payContract(playerAddress, usdAmount);\r\n    }\r\n\r\n    function payContractConverted(address playerAddress, uint256 convertedAmount) public restricted {\r\n        _payContractConverted(playerAddress, convertedAmount);\r\n    }\r\n\r\n    function payPlayer(address playerAddress, int128 baseAmount) public restricted {\r\n        _payPlayer(playerAddress, baseAmount);\r\n    }\r\n\r\n    function payPlayerConverted(address playerAddress, uint256 convertedAmount) public restricted {\r\n        _payPlayerConverted(playerAddress, convertedAmount);\r\n    }\r\n\r\n    function approveContractCharacterFor(uint256 characterID, address playerAddress) public restricted {\r\n        _approveContractCharacterFor(characterID, playerAddress);\r\n    }\r\n\r\n    function approveContractWeaponFor(uint256 weaponID, address playerAddress) public restricted {\r\n        _approveContractWeaponFor(weaponID, playerAddress);\r\n    }\r\n\r\n    function _payContractTokenOnly(address playerAddress, int128 usdAmount) internal {\r\n        uint256 convertedAmount = usdToSkill(usdAmount);\r\n\r\n        (, uint256 fromTokenRewards, uint256 fromUserWallet) =\r\n            getSkillToSubtract(\r\n                0,\r\n                tokenRewards[playerAddress],\r\n                convertedAmount\r\n            );\r\n\r\n        tokenRewards[playerAddress] = tokenRewards[playerAddress].sub(fromTokenRewards);\r\n        skillToken.safeTransferFrom(playerAddress, address(this), fromUserWallet);\r\n    }\r\n\r\n    function _payContract(address playerAddress, int128 usdAmount) internal {\r\n        _payContractConverted(playerAddress, usdToSkill(usdAmount));\r\n    }\r\n\r\n    function _payContractConverted(address playerAddress, uint256 convertedAmount) internal {\r\n\r\n        (uint256 fromInGameOnlyFunds, uint256 fromTokenRewards, uint256 fromUserWallet) =\r\n            getSkillToSubtract(\r\n                inGameOnlyFunds[playerAddress],\r\n                tokenRewards[playerAddress],\r\n                convertedAmount\r\n            );\r\n\r\n        // must use requestPayFromPlayer modifier to approve on the initial function!\r\n        totalInGameOnlyFunds = totalInGameOnlyFunds.sub(fromInGameOnlyFunds);\r\n        inGameOnlyFunds[playerAddress] = inGameOnlyFunds[playerAddress].sub(fromInGameOnlyFunds);\r\n\r\n        tokenRewards[playerAddress] = tokenRewards[playerAddress].sub(fromTokenRewards);\r\n        skillToken.safeTransferFrom(playerAddress, address(this), fromUserWallet);\r\n    }\r\n\r\n    function _payPlayer(address playerAddress, int128 baseAmount) internal {\r\n        _payPlayerConverted(playerAddress, usdToSkill(baseAmount));\r\n    }\r\n\r\n    function _payPlayerConverted(address playerAddress, uint256 convertedAmount) internal {\r\n        skillToken.safeTransfer(playerAddress, convertedAmount);\r\n    }\r\n\r\n    function _approveContractCharacterFor(uint256 characterID, address playerAddress) internal {\r\n        characters.approve(playerAddress, characterID);\r\n    }\r\n\r\n    function _approveContractWeaponFor(uint256 weaponID, address playerAddress) internal {\r\n        weapons.approve(playerAddress, weaponID);\r\n    }\r\n\r\n    function setCharacterMintValue(uint256 cents) public restricted {\r\n        mintCharacterFee = ABDKMath64x64.divu(cents, 100);\r\n    }\r\n\r\n    function setFightRewardBaselineValue(uint256 tenthcents) public restricted {\r\n        fightRewardBaseline = ABDKMath64x64.divu(tenthcents, 1000); // !!! THIS TAKES TENTH OF CENTS !!!\r\n    }\r\n\r\n    function setFightRewardGasOffsetValue(uint256 cents) public restricted {\r\n        fightRewardGasOffset = ABDKMath64x64.divu(cents, 100);\r\n    }\r\n\r\n    function setWeaponMintValue(uint256 cents) public restricted {\r\n        mintWeaponFee = ABDKMath64x64.divu(cents, 100);\r\n    }\r\n\r\n    function setBurnWeaponValue(uint256 cents) public restricted {\r\n        burnWeaponFee = ABDKMath64x64.divu(cents, 100);\r\n    }\r\n\r\n    function setReforgeWeaponValue(uint256 cents) public restricted {\r\n        require(cents >= 25, \"ReforgeWeaponValue too low\");\r\n        require(cents <= 100, \"ReforgeWeaponValue too high\");\r\n        int128 newReforgeWeaponFee = ABDKMath64x64.divu(cents, 100);\r\n        require(newReforgeWeaponFee > burnWeaponFee, \"Reforge fee must include burn fee\");\r\n        reforgeWeaponWithDustFee = newReforgeWeaponFee - burnWeaponFee;\r\n        reforgeWeaponFee = newReforgeWeaponFee;\r\n    }\r\n\r\n    function setReforgeWeaponWithDustValue(uint256 cents) public restricted {\r\n        reforgeWeaponWithDustFee = ABDKMath64x64.divu(cents, 100);\r\n        reforgeWeaponFee = burnWeaponFee + reforgeWeaponWithDustFee;\r\n    }\r\n\r\n    function setStaminaCostFight(uint8 points) public restricted {\r\n        require(points >= 20, \"StaminaCostFight too low\");\r\n        require(points <= 50, \"StaminaCostFight too high\");\r\n        staminaCostFight = points;\r\n    }\r\n\r\n    function setDurabilityCostFight(uint8 points) public restricted {\r\n        durabilityCostFight = points;\r\n    }\r\n\r\n    function setFightXpGain(uint256 average) public restricted {\r\n        require(average >= 16, \"FightXpGain too low\");\r\n        require(average <= 64, \"FightXpGain too high\");\r\n        fightXpGain = average;\r\n    }\r\n\r\n    function setCharacterLimit(uint256 max) public restricted {\r\n        characters.setCharacterLimit(max);\r\n    }\r\n\r\n    function giveInGameOnlyFunds(address to, uint256 skillAmount) external restricted {\r\n        totalInGameOnlyFunds = totalInGameOnlyFunds.add(skillAmount);\r\n        inGameOnlyFunds[to] = inGameOnlyFunds[to].add(skillAmount);\r\n\r\n        skillToken.safeTransferFrom(msg.sender, address(this), skillAmount);\r\n\r\n        emit InGameOnlyFundsGiven(to, skillAmount);\r\n    }\r\n\r\n    function _giveInGameOnlyFundsFromContractBalance(address to, uint256 skillAmount) internal {\r\n        totalInGameOnlyFunds = totalInGameOnlyFunds.add(skillAmount);\r\n        inGameOnlyFunds[to] = inGameOnlyFunds[to].add(skillAmount);\r\n\r\n        emit InGameOnlyFundsGiven(to, skillAmount);\r\n    }\r\n\r\n    function giveInGameOnlyFundsFromContractBalance(address to, uint256 skillAmount) external restricted {\r\n        _giveInGameOnlyFundsFromContractBalance(to, skillAmount);\r\n    }\r\n\r\n    function usdToSkill(int128 usdAmount) public view returns (uint256) {\r\n        return usdAmount.mulu(priceOracleSkillPerUsd.currentPrice());\r\n    }\r\n\r\n    function getCurrentHour() public view returns (uint256) {\r\n        // \"now\" returns unix time since 1970 Jan 1, in seconds\r\n        return now.div(1 hours);\r\n    }\r\n\r\n    function claimTokenRewards() public {\r\n        // our characters go to the tavern\r\n        // and the barkeep pays them for the bounties\r\n        uint256 _tokenRewards = tokenRewards[msg.sender];\r\n        tokenRewards[msg.sender] = 0;\r\n\r\n        uint256 _tokenRewardsToPayOut = _tokenRewards.sub(\r\n            _getRewardsClaimTax(msg.sender).mulu(_tokenRewards)\r\n        );\r\n\r\n        // Tax goes to game contract itself, which would mean\r\n        // transferring from the game contract to ...itself.\r\n        // So we don't need to do anything with the tax part of the rewards.\r\n\r\n        _payPlayerConverted(msg.sender, _tokenRewardsToPayOut);\r\n    }\r\n\r\n    function stakeUnclaimedRewards() external {\r\n        uint256 _tokenRewards = tokenRewards[msg.sender];\r\n        tokenRewards[msg.sender] = 0;\r\n\r\n        skillToken.approve(address(stakeFromGameImpl), _tokenRewards);\r\n        stakeFromGameImpl.stakeFromGame(msg.sender, _tokenRewards);\r\n    }\r\n\r\n    function claimXpRewards() public {\r\n        // our characters go to the tavern to rest\r\n        // they meditate on what they've learned\r\n        for(uint256 i = 0; i < characters.balanceOf(msg.sender); i++) {\r\n            uint256 char = characters.tokenOfOwnerByIndex(msg.sender, i);\r\n            uint256 xpRewardsToClaim = xpRewards[char];\r\n            xpRewards[char] = 0;\r\n            if (xpRewardsToClaim > 65535) {\r\n                xpRewardsToClaim = 65535;\r\n            }\r\n            characters.gainXp(char, uint16(xpRewardsToClaim));\r\n        }\r\n    }\r\n\r\n    function getTokenRewards() public view returns (uint256) {\r\n        return tokenRewards[msg.sender];\r\n    }\r\n\r\n    function getXpRewards(uint256 char) public view returns (uint256) {\r\n        return xpRewards[char];\r\n    }\r\n\r\n    function getTokenRewardsFor(address wallet) public view returns (uint256) {\r\n        return tokenRewards[wallet];\r\n    }\r\n\r\n    function getTotalSkillOwnedBy(address wallet) public view returns (uint256) {\r\n        return inGameOnlyFunds[wallet] + getTokenRewardsFor(wallet) + skillToken.balanceOf(wallet);\r\n    }\r\n\r\n    function _getRewardsClaimTax(address playerAddress) internal view returns (int128) {\r\n        assert(_rewardsClaimTaxTimerStart[playerAddress] <= block.timestamp);\r\n\r\n        uint256 rewardsClaimTaxTimerEnd = _rewardsClaimTaxTimerStart[playerAddress].add(REWARDS_CLAIM_TAX_DURATION);\r\n\r\n        (, uint256 durationUntilNoTax) = rewardsClaimTaxTimerEnd.trySub(block.timestamp);\r\n\r\n        assert(0 <= durationUntilNoTax && durationUntilNoTax <= REWARDS_CLAIM_TAX_DURATION);\r\n\r\n        int128 frac = ABDKMath64x64.divu(durationUntilNoTax, REWARDS_CLAIM_TAX_DURATION);\r\n\r\n        return REWARDS_CLAIM_TAX_MAX.mul(frac);\r\n    }\r\n\r\n    function getOwnRewardsClaimTax() public view returns (int128) {\r\n        return _getRewardsClaimTax(msg.sender);\r\n    }\r\n\r\n    function _startRewardsClaimTaxTimer(address playerAddress) internal {\r\n        _rewardsClaimTaxTimerStart[playerAddress] = block.timestamp;\r\n    }\r\n\r\n}",
  "sourcePath": "D:\\dev\\cryptoblades\\contracts\\cryptoblades.sol",
  "compiler": {
    "name": "solc",
    "version": "0.6.5+commit.f956cc89.Emscripten.clang"
  },
  "schemaVersion": "3.3.4",
  "updatedAt": "2021-08-02T10:35:02.349Z",
  "devdoc": {
    "methods": {
      "getRoleAdmin(bytes32)": {
        "details": "Returns the admin role that controls `role`. See {grantRole} and {revokeRole}.     * To change a role's admin, use {_setRoleAdmin}."
      },
      "getRoleMember(bytes32,uint256)": {
        "details": "Returns one of the accounts that have `role`. `index` must be a value between 0 and {getRoleMemberCount}, non-inclusive.     * Role bearers are not sorted in any particular way, and their ordering may change at any point.     * WARNING: When using {getRoleMember} and {getRoleMemberCount}, make sure you perform all queries on the same block. See the following https://forum.openzeppelin.com/t/iterating-over-elements-on-enumerableset-in-openzeppelin-contracts/2296[forum post] for more information."
      },
      "getRoleMemberCount(bytes32)": {
        "details": "Returns the number of accounts that have `role`. Can be used together with {getRoleMember} to enumerate all bearers of a role."
      },
      "grantRole(bytes32,address)": {
        "details": "Grants `role` to `account`.     * If `account` had not been already granted `role`, emits a {RoleGranted} event.     * Requirements:     * - the caller must have ``role``'s admin role."
      },
      "hasRole(bytes32,address)": {
        "details": "Returns `true` if `account` has been granted `role`."
      },
      "renounceRole(bytes32,address)": {
        "details": "Revokes `role` from the calling account.     * Roles are often managed via {grantRole} and {revokeRole}: this function's purpose is to provide a mechanism for accounts to lose their privileges if they are compromised (such as when a trusted device is misplaced).     * If the calling account had been granted `role`, emits a {RoleRevoked} event.     * Requirements:     * - the caller must be `account`."
      },
      "revokeRole(bytes32,address)": {
        "details": "Revokes `role` from `account`.     * If `account` had been granted `role`, emits a {RoleRevoked} event.     * Requirements:     * - the caller must have ``role``'s admin role."
      }
    }
  },
  "userdoc": {
    "methods": {}
  }
}